{
  "address": "0x861B1eB8be5B2937480764D9AA242B25adBDdDc8",
  "abi": [
    {
      "inputs": [
        {
          "internalType": "string",
          "name": "_name",
          "type": "string"
        },
        {
          "internalType": "string",
          "name": "_symbol",
          "type": "string"
        },
        {
          "internalType": "address",
          "name": "_lzEndpoint",
          "type": "address"
        }
      ],
      "stateMutability": "nonpayable",
      "type": "constructor"
    },
    {
      "anonymous": false,
      "inputs": [
        {
          "indexed": true,
          "internalType": "address",
          "name": "owner",
          "type": "address"
        },
        {
          "indexed": true,
          "internalType": "address",
          "name": "spender",
          "type": "address"
        },
        {
          "indexed": false,
          "internalType": "uint256",
          "name": "value",
          "type": "uint256"
        }
      ],
      "name": "Approval",
      "type": "event"
    },
    {
      "anonymous": false,
      "inputs": [
        {
          "indexed": false,
          "internalType": "uint16",
          "name": "_srcChainId",
          "type": "uint16"
        },
        {
          "indexed": false,
          "internalType": "bytes",
          "name": "_srcAddress",
          "type": "bytes"
        },
        {
          "indexed": false,
          "internalType": "uint64",
          "name": "_nonce",
          "type": "uint64"
        },
        {
          "indexed": false,
          "internalType": "bytes",
          "name": "_payload",
          "type": "bytes"
        },
        {
          "indexed": false,
          "internalType": "bytes",
          "name": "_reason",
          "type": "bytes"
        }
      ],
      "name": "MessageFailed",
      "type": "event"
    },
    {
      "anonymous": false,
      "inputs": [
        {
          "indexed": true,
          "internalType": "address",
          "name": "previousOwner",
          "type": "address"
        },
        {
          "indexed": true,
          "internalType": "address",
          "name": "newOwner",
          "type": "address"
        }
      ],
      "name": "OwnershipTransferred",
      "type": "event"
    },
    {
      "anonymous": false,
      "inputs": [
        {
          "indexed": true,
          "internalType": "uint16",
          "name": "_srcChainId",
          "type": "uint16"
        },
        {
          "indexed": true,
          "internalType": "address",
          "name": "_to",
          "type": "address"
        },
        {
          "indexed": false,
          "internalType": "uint256",
          "name": "_amount",
          "type": "uint256"
        }
      ],
      "name": "ReceiveFromChain",
      "type": "event"
    },
    {
      "anonymous": false,
      "inputs": [
        {
          "indexed": false,
          "internalType": "uint16",
          "name": "_srcChainId",
          "type": "uint16"
        },
        {
          "indexed": false,
          "internalType": "bytes",
          "name": "_srcAddress",
          "type": "bytes"
        },
        {
          "indexed": false,
          "internalType": "uint64",
          "name": "_nonce",
          "type": "uint64"
        },
        {
          "indexed": false,
          "internalType": "bytes32",
          "name": "_payloadHash",
          "type": "bytes32"
        }
      ],
      "name": "RetryMessageSuccess",
      "type": "event"
    },
    {
      "anonymous": false,
      "inputs": [
        {
          "indexed": true,
          "internalType": "uint16",
          "name": "_dstChainId",
          "type": "uint16"
        },
        {
          "indexed": true,
          "internalType": "address",
          "name": "_from",
          "type": "address"
        },
        {
          "indexed": false,
          "internalType": "bytes",
          "name": "_toAddress",
          "type": "bytes"
        },
        {
          "indexed": false,
          "internalType": "uint256",
          "name": "_amount",
          "type": "uint256"
        }
      ],
      "name": "SendToChain",
      "type": "event"
    },
    {
      "anonymous": false,
      "inputs": [
        {
          "indexed": false,
          "internalType": "uint16",
          "name": "_dstChainId",
          "type": "uint16"
        },
        {
          "indexed": false,
          "internalType": "uint16",
          "name": "_type",
          "type": "uint16"
        },
        {
          "indexed": false,
          "internalType": "uint256",
          "name": "_minDstGas",
          "type": "uint256"
        }
      ],
      "name": "SetMinDstGas",
      "type": "event"
    },
    {
      "anonymous": false,
      "inputs": [
        {
          "indexed": false,
          "internalType": "address",
          "name": "precrime",
          "type": "address"
        }
      ],
      "name": "SetPrecrime",
      "type": "event"
    },
    {
      "anonymous": false,
      "inputs": [
        {
          "indexed": false,
          "internalType": "uint16",
          "name": "_remoteChainId",
          "type": "uint16"
        },
        {
          "indexed": false,
          "internalType": "bytes",
          "name": "_path",
          "type": "bytes"
        }
      ],
      "name": "SetTrustedRemote",
      "type": "event"
    },
    {
      "anonymous": false,
      "inputs": [
        {
          "indexed": false,
          "internalType": "uint16",
          "name": "_remoteChainId",
          "type": "uint16"
        },
        {
          "indexed": false,
          "internalType": "bytes",
          "name": "_remoteAddress",
          "type": "bytes"
        }
      ],
      "name": "SetTrustedRemoteAddress",
      "type": "event"
    },
    {
      "anonymous": false,
      "inputs": [
        {
          "indexed": false,
          "internalType": "bool",
          "name": "_useCustomAdapterParams",
          "type": "bool"
        }
      ],
      "name": "SetUseCustomAdapterParams",
      "type": "event"
    },
    {
      "anonymous": false,
      "inputs": [
        {
          "indexed": true,
          "internalType": "address",
          "name": "from",
          "type": "address"
        },
        {
          "indexed": true,
          "internalType": "address",
          "name": "to",
          "type": "address"
        },
        {
          "indexed": false,
          "internalType": "uint256",
          "name": "value",
          "type": "uint256"
        }
      ],
      "name": "Transfer",
      "type": "event"
    },
    {
      "inputs": [],
      "name": "DEFAULT_PAYLOAD_SIZE_LIMIT",
      "outputs": [
        {
          "internalType": "uint256",
          "name": "",
          "type": "uint256"
        }
      ],
      "stateMutability": "view",
      "type": "function"
    },
    {
      "inputs": [],
      "name": "NO_EXTRA_GAS",
      "outputs": [
        {
          "internalType": "uint256",
          "name": "",
          "type": "uint256"
        }
      ],
      "stateMutability": "view",
      "type": "function"
    },
    {
      "inputs": [],
      "name": "PT_SEND",
      "outputs": [
        {
          "internalType": "uint16",
          "name": "",
          "type": "uint16"
        }
      ],
      "stateMutability": "view",
      "type": "function"
    },
    {
      "inputs": [
        {
          "internalType": "address",
          "name": "owner",
          "type": "address"
        },
        {
          "internalType": "address",
          "name": "spender",
          "type": "address"
        }
      ],
      "name": "allowance",
      "outputs": [
        {
          "internalType": "uint256",
          "name": "",
          "type": "uint256"
        }
      ],
      "stateMutability": "view",
      "type": "function"
    },
    {
      "inputs": [
        {
          "internalType": "address",
          "name": "spender",
          "type": "address"
        },
        {
          "internalType": "uint256",
          "name": "amount",
          "type": "uint256"
        }
      ],
      "name": "approve",
      "outputs": [
        {
          "internalType": "bool",
          "name": "",
          "type": "bool"
        }
      ],
      "stateMutability": "nonpayable",
      "type": "function"
    },
    {
      "inputs": [
        {
          "internalType": "address",
          "name": "account",
          "type": "address"
        }
      ],
      "name": "balanceOf",
      "outputs": [
        {
          "internalType": "uint256",
          "name": "",
          "type": "uint256"
        }
      ],
      "stateMutability": "view",
      "type": "function"
    },
    {
      "inputs": [],
      "name": "circulatingSupply",
      "outputs": [
        {
          "internalType": "uint256",
          "name": "",
          "type": "uint256"
        }
      ],
      "stateMutability": "view",
      "type": "function"
    },
    {
      "inputs": [],
      "name": "decimals",
      "outputs": [
        {
          "internalType": "uint8",
          "name": "",
          "type": "uint8"
        }
      ],
      "stateMutability": "view",
      "type": "function"
    },
    {
      "inputs": [
        {
          "internalType": "address",
          "name": "spender",
          "type": "address"
        },
        {
          "internalType": "uint256",
          "name": "subtractedValue",
          "type": "uint256"
        }
      ],
      "name": "decreaseAllowance",
      "outputs": [
        {
          "internalType": "bool",
          "name": "",
          "type": "bool"
        }
      ],
      "stateMutability": "nonpayable",
      "type": "function"
    },
    {
      "inputs": [
        {
          "internalType": "uint16",
          "name": "_dstChainId",
          "type": "uint16"
        },
        {
          "internalType": "bytes",
          "name": "_toAddress",
          "type": "bytes"
        },
        {
          "internalType": "uint256",
          "name": "_amount",
          "type": "uint256"
        },
        {
          "internalType": "bool",
          "name": "_useZro",
          "type": "bool"
        },
        {
          "internalType": "bytes",
          "name": "_adapterParams",
          "type": "bytes"
        }
      ],
      "name": "estimateSendFee",
      "outputs": [
        {
          "internalType": "uint256",
          "name": "nativeFee",
          "type": "uint256"
        },
        {
          "internalType": "uint256",
          "name": "zroFee",
          "type": "uint256"
        }
      ],
      "stateMutability": "view",
      "type": "function"
    },
    {
      "inputs": [
        {
          "internalType": "uint16",
          "name": "",
          "type": "uint16"
        },
        {
          "internalType": "bytes",
          "name": "",
          "type": "bytes"
        },
        {
          "internalType": "uint64",
          "name": "",
          "type": "uint64"
        }
      ],
      "name": "failedMessages",
      "outputs": [
        {
          "internalType": "bytes32",
          "name": "",
          "type": "bytes32"
        }
      ],
      "stateMutability": "view",
      "type": "function"
    },
    {
      "inputs": [
        {
          "internalType": "uint16",
          "name": "_srcChainId",
          "type": "uint16"
        },
        {
          "internalType": "bytes",
          "name": "_srcAddress",
          "type": "bytes"
        }
      ],
      "name": "forceResumeReceive",
      "outputs": [],
      "stateMutability": "nonpayable",
      "type": "function"
    },
    {
      "inputs": [
        {
          "internalType": "uint16",
          "name": "_version",
          "type": "uint16"
        },
        {
          "internalType": "uint16",
          "name": "_chainId",
          "type": "uint16"
        },
        {
          "internalType": "address",
          "name": "",
          "type": "address"
        },
        {
          "internalType": "uint256",
          "name": "_configType",
          "type": "uint256"
        }
      ],
      "name": "getConfig",
      "outputs": [
        {
          "internalType": "bytes",
          "name": "",
          "type": "bytes"
        }
      ],
      "stateMutability": "view",
      "type": "function"
    },
    {
      "inputs": [
        {
          "internalType": "uint16",
          "name": "_remoteChainId",
          "type": "uint16"
        }
      ],
      "name": "getTrustedRemoteAddress",
      "outputs": [
        {
          "internalType": "bytes",
          "name": "",
          "type": "bytes"
        }
      ],
      "stateMutability": "view",
      "type": "function"
    },
    {
      "inputs": [
        {
          "internalType": "address",
          "name": "spender",
          "type": "address"
        },
        {
          "internalType": "uint256",
          "name": "addedValue",
          "type": "uint256"
        }
      ],
      "name": "increaseAllowance",
      "outputs": [
        {
          "internalType": "bool",
          "name": "",
          "type": "bool"
        }
      ],
      "stateMutability": "nonpayable",
      "type": "function"
    },
    {
      "inputs": [
        {
          "internalType": "uint16",
          "name": "_srcChainId",
          "type": "uint16"
        },
        {
          "internalType": "bytes",
          "name": "_srcAddress",
          "type": "bytes"
        }
      ],
      "name": "isTrustedRemote",
      "outputs": [
        {
          "internalType": "bool",
          "name": "",
          "type": "bool"
        }
      ],
      "stateMutability": "view",
      "type": "function"
    },
    {
      "inputs": [],
      "name": "lzEndpoint",
      "outputs": [
        {
          "internalType": "contract ILayerZeroEndpoint",
          "name": "",
          "type": "address"
        }
      ],
      "stateMutability": "view",
      "type": "function"
    },
    {
      "inputs": [
        {
          "internalType": "uint16",
          "name": "_srcChainId",
          "type": "uint16"
        },
        {
          "internalType": "bytes",
          "name": "_srcAddress",
          "type": "bytes"
        },
        {
          "internalType": "uint64",
          "name": "_nonce",
          "type": "uint64"
        },
        {
          "internalType": "bytes",
          "name": "_payload",
          "type": "bytes"
        }
      ],
      "name": "lzReceive",
      "outputs": [],
      "stateMutability": "nonpayable",
      "type": "function"
    },
    {
      "inputs": [
        {
          "internalType": "uint16",
          "name": "",
          "type": "uint16"
        },
        {
          "internalType": "uint16",
          "name": "",
          "type": "uint16"
        }
      ],
      "name": "minDstGasLookup",
      "outputs": [
        {
          "internalType": "uint256",
          "name": "",
          "type": "uint256"
        }
      ],
      "stateMutability": "view",
      "type": "function"
    },
    {
      "inputs": [],
      "name": "name",
      "outputs": [
        {
          "internalType": "string",
          "name": "",
          "type": "string"
        }
      ],
      "stateMutability": "view",
      "type": "function"
    },
    {
      "inputs": [
        {
          "internalType": "uint16",
          "name": "_srcChainId",
          "type": "uint16"
        },
        {
          "internalType": "bytes",
          "name": "_srcAddress",
          "type": "bytes"
        },
        {
          "internalType": "uint64",
          "name": "_nonce",
          "type": "uint64"
        },
        {
          "internalType": "bytes",
          "name": "_payload",
          "type": "bytes"
        }
      ],
      "name": "nonblockingLzReceive",
      "outputs": [],
      "stateMutability": "nonpayable",
      "type": "function"
    },
    {
      "inputs": [],
      "name": "owner",
      "outputs": [
        {
          "internalType": "address",
          "name": "",
          "type": "address"
        }
      ],
      "stateMutability": "view",
      "type": "function"
    },
    {
      "inputs": [
        {
          "internalType": "uint16",
          "name": "",
          "type": "uint16"
        }
      ],
      "name": "payloadSizeLimitLookup",
      "outputs": [
        {
          "internalType": "uint256",
          "name": "",
          "type": "uint256"
        }
      ],
      "stateMutability": "view",
      "type": "function"
    },
    {
      "inputs": [],
      "name": "precrime",
      "outputs": [
        {
          "internalType": "address",
          "name": "",
          "type": "address"
        }
      ],
      "stateMutability": "view",
      "type": "function"
    },
    {
      "inputs": [],
      "name": "renounceOwnership",
      "outputs": [],
      "stateMutability": "nonpayable",
      "type": "function"
    },
    {
      "inputs": [
        {
          "internalType": "uint16",
          "name": "_srcChainId",
          "type": "uint16"
        },
        {
          "internalType": "bytes",
          "name": "_srcAddress",
          "type": "bytes"
        },
        {
          "internalType": "uint64",
          "name": "_nonce",
          "type": "uint64"
        },
        {
          "internalType": "bytes",
          "name": "_payload",
          "type": "bytes"
        }
      ],
      "name": "retryMessage",
      "outputs": [],
      "stateMutability": "payable",
      "type": "function"
    },
    {
      "inputs": [
        {
          "internalType": "address",
          "name": "_from",
          "type": "address"
        },
        {
          "internalType": "uint16",
          "name": "_dstChainId",
          "type": "uint16"
        },
        {
          "internalType": "bytes",
          "name": "_toAddress",
          "type": "bytes"
        },
        {
          "internalType": "uint256",
          "name": "_amount",
          "type": "uint256"
        },
        {
          "internalType": "address payable",
          "name": "_refundAddress",
          "type": "address"
        },
        {
          "internalType": "address",
          "name": "_zroPaymentAddress",
          "type": "address"
        },
        {
          "internalType": "bytes",
          "name": "_adapterParams",
          "type": "bytes"
        }
      ],
      "name": "sendFrom",
      "outputs": [],
      "stateMutability": "payable",
      "type": "function"
    },
    {
      "inputs": [
        {
          "internalType": "uint16",
          "name": "_version",
          "type": "uint16"
        },
        {
          "internalType": "uint16",
          "name": "_chainId",
          "type": "uint16"
        },
        {
          "internalType": "uint256",
          "name": "_configType",
          "type": "uint256"
        },
        {
          "internalType": "bytes",
          "name": "_config",
          "type": "bytes"
        }
      ],
      "name": "setConfig",
      "outputs": [],
      "stateMutability": "nonpayable",
      "type": "function"
    },
    {
      "inputs": [
        {
          "internalType": "uint16",
          "name": "_dstChainId",
          "type": "uint16"
        },
        {
          "internalType": "uint16",
          "name": "_packetType",
          "type": "uint16"
        },
        {
          "internalType": "uint256",
          "name": "_minGas",
          "type": "uint256"
        }
      ],
      "name": "setMinDstGas",
      "outputs": [],
      "stateMutability": "nonpayable",
      "type": "function"
    },
    {
      "inputs": [
        {
          "internalType": "uint16",
          "name": "_dstChainId",
          "type": "uint16"
        },
        {
          "internalType": "uint256",
          "name": "_size",
          "type": "uint256"
        }
      ],
      "name": "setPayloadSizeLimit",
      "outputs": [],
      "stateMutability": "nonpayable",
      "type": "function"
    },
    {
      "inputs": [
        {
          "internalType": "address",
          "name": "_precrime",
          "type": "address"
        }
      ],
      "name": "setPrecrime",
      "outputs": [],
      "stateMutability": "nonpayable",
      "type": "function"
    },
    {
      "inputs": [
        {
          "internalType": "uint16",
          "name": "_version",
          "type": "uint16"
        }
      ],
      "name": "setReceiveVersion",
      "outputs": [],
      "stateMutability": "nonpayable",
      "type": "function"
    },
    {
      "inputs": [
        {
          "internalType": "uint16",
          "name": "_version",
          "type": "uint16"
        }
      ],
      "name": "setSendVersion",
      "outputs": [],
      "stateMutability": "nonpayable",
      "type": "function"
    },
    {
      "inputs": [
        {
          "internalType": "uint16",
          "name": "_remoteChainId",
          "type": "uint16"
        },
        {
          "internalType": "bytes",
          "name": "_path",
          "type": "bytes"
        }
      ],
      "name": "setTrustedRemote",
      "outputs": [],
      "stateMutability": "nonpayable",
      "type": "function"
    },
    {
      "inputs": [
        {
          "internalType": "uint16",
          "name": "_remoteChainId",
          "type": "uint16"
        },
        {
          "internalType": "bytes",
          "name": "_remoteAddress",
          "type": "bytes"
        }
      ],
      "name": "setTrustedRemoteAddress",
      "outputs": [],
      "stateMutability": "nonpayable",
      "type": "function"
    },
    {
      "inputs": [
        {
          "internalType": "bool",
          "name": "_useCustomAdapterParams",
          "type": "bool"
        }
      ],
      "name": "setUseCustomAdapterParams",
      "outputs": [],
      "stateMutability": "nonpayable",
      "type": "function"
    },
    {
      "inputs": [
        {
          "internalType": "bytes4",
          "name": "interfaceId",
          "type": "bytes4"
        }
      ],
      "name": "supportsInterface",
      "outputs": [
        {
          "internalType": "bool",
          "name": "",
          "type": "bool"
        }
      ],
      "stateMutability": "view",
      "type": "function"
    },
    {
      "inputs": [],
      "name": "symbol",
      "outputs": [
        {
          "internalType": "string",
          "name": "",
          "type": "string"
        }
      ],
      "stateMutability": "view",
      "type": "function"
    },
    {
      "inputs": [],
      "name": "token",
      "outputs": [
        {
          "internalType": "address",
          "name": "",
          "type": "address"
        }
      ],
      "stateMutability": "view",
      "type": "function"
    },
    {
      "inputs": [],
      "name": "totalSupply",
      "outputs": [
        {
          "internalType": "uint256",
          "name": "",
          "type": "uint256"
        }
      ],
      "stateMutability": "view",
      "type": "function"
    },
    {
      "inputs": [
        {
          "internalType": "address",
          "name": "to",
          "type": "address"
        },
        {
          "internalType": "uint256",
          "name": "amount",
          "type": "uint256"
        }
      ],
      "name": "transfer",
      "outputs": [
        {
          "internalType": "bool",
          "name": "",
          "type": "bool"
        }
      ],
      "stateMutability": "nonpayable",
      "type": "function"
    },
    {
      "inputs": [
        {
          "internalType": "address",
          "name": "from",
          "type": "address"
        },
        {
          "internalType": "address",
          "name": "to",
          "type": "address"
        },
        {
          "internalType": "uint256",
          "name": "amount",
          "type": "uint256"
        }
      ],
      "name": "transferFrom",
      "outputs": [
        {
          "internalType": "bool",
          "name": "",
          "type": "bool"
        }
      ],
      "stateMutability": "nonpayable",
      "type": "function"
    },
    {
      "inputs": [
        {
          "internalType": "address",
          "name": "newOwner",
          "type": "address"
        }
      ],
      "name": "transferOwnership",
      "outputs": [],
      "stateMutability": "nonpayable",
      "type": "function"
    },
    {
      "inputs": [
        {
          "internalType": "uint16",
          "name": "",
          "type": "uint16"
        }
      ],
      "name": "trustedRemoteLookup",
      "outputs": [
        {
          "internalType": "bytes",
          "name": "",
          "type": "bytes"
        }
      ],
      "stateMutability": "view",
      "type": "function"
    },
    {
      "inputs": [],
      "name": "useCustomAdapterParams",
      "outputs": [
        {
          "internalType": "bool",
          "name": "",
          "type": "bool"
        }
      ],
      "stateMutability": "view",
      "type": "function"
    }
  ],
  "transactionHash": "0x2761a2028b14ceacdf5f8b11e8120c1bf02cdb624d88d6f88182e4f0379cac9d",
  "args": [
    "Grape coin",
    "GRAPE",
    "0x66A71Dcef29A0fFBDBE3c6a460a3B5BC225Cd675"
  ],
  "numDeployments": 1,
  "solcInputHash": "5704ce7638a02d84adb79b27046853d3",
  "bytecode": "0x60a06040523480156200001157600080fd5b50604051620037523803806200375283398101604081905262000034916200024c565b8282828080620000443362000089565b6001600160a01b0316608052505081516200006790600a906020850190620000d9565b5080516200007d90600b906020840190620000d9565b50505050505062000316565b600080546001600160a01b038381166001600160a01b0319831681178455604051919092169283917f8be0079c531659141344cd1fd0a4f28419497f9722a3daafe3b4186f6b6457e09190a35050565b828054620000e790620002d9565b90600052602060002090601f0160209004810192826200010b576000855562000156565b82601f106200012657805160ff191683800117855562000156565b8280016001018555821562000156579182015b828111156200015657825182559160200191906001019062000139565b506200016492915062000168565b5090565b5b8082111562000164576000815560010162000169565b634e487b7160e01b600052604160045260246000fd5b600082601f830112620001a757600080fd5b81516001600160401b0380821115620001c457620001c46200017f565b604051601f8301601f19908116603f01168101908282118183101715620001ef57620001ef6200017f565b816040528381526020925086838588010111156200020c57600080fd5b600091505b8382101562000230578582018301518183018401529082019062000211565b83821115620002425760008385830101525b9695505050505050565b6000806000606084860312156200026257600080fd5b83516001600160401b03808211156200027a57600080fd5b620002888783880162000195565b945060208601519150808211156200029f57600080fd5b50620002ae8682870162000195565b604086015190935090506001600160a01b0381168114620002ce57600080fd5b809150509250925092565b600181811c90821680620002ee57607f821691505b602082108114156200031057634e487b7160e01b600052602260045260246000fd5b50919050565b6080516133e86200036a600039600081816106fc0152818161087701528181610b9601528181610c5601528181610cf401528181610e91015281816113d501528181611838015261227601526133e86000f3fe6080604052600436106102715760003560e01c80637533d7881161014f578063baf3292d116100c1578063eab45d9c1161007a578063eab45d9c146107c7578063eb8d72b7146107e7578063ed629c5c14610807578063f2fde38b14610821578063f5ecbdbc14610841578063fc0c546a1461086157600080fd5b8063baf3292d1461071e578063c44618341461073e578063cbed8b9c14610754578063d1deba1f14610774578063dd62ed3e14610787578063df2a5b3b146107a757600080fd5b806395d89b411161011357806395d89b41146106555780639f38369a1461066a578063a457c2d71461068a578063a6c3d165146106aa578063a9059cbb146106ca578063b353aaa7146106ea57600080fd5b80637533d788146105965780638cfd8f5c146105b65780638da5cb5b146105ee5780639358928b14610620578063950c8a741461063557600080fd5b806339509351116101e85780634c42899a116101ac5780634c42899a146104a157806351905636146104c95780635b8c41e6146104dc57806366ad5c8a1461052b57806370a082311461054b578063715018a61461058157600080fd5b806339509351146103ff5780633d8b38f61461041f5780633f1f4fa41461043f57806342d65a8d1461046c578063447705151461048c57600080fd5b80630df374831161023a5780630df374831461032f57806310ddb1371461034f57806318160ddd1461036f57806323b872dd1461038e5780632a205e3d146103ae578063313ce567146103e357600080fd5b80621d35671461027657806301ffc9a71461029857806306fdde03146102cd57806307e0db17146102ef578063095ea7b31461030f575b600080fd5b34801561028257600080fd5b50610296610291366004612909565b610874565b005b3480156102a457600080fd5b506102b86102b336600461299e565b610aa5565b60405190151581526020015b60405180910390f35b3480156102d957600080fd5b506102e2610ae3565b6040516102c49190612a20565b3480156102fb57600080fd5b5061029661030a366004612a33565b610b75565b34801561031b57600080fd5b506102b861032a366004612a65565b610bfe565b34801561033b57600080fd5b5061029661034a366004612a91565b610c16565b34801561035b57600080fd5b5061029661036a366004612a33565b610c35565b34801561037b57600080fd5b506009545b6040519081526020016102c4565b34801561039a57600080fd5b506102b86103a9366004612aaf565b610c8d565b3480156103ba57600080fd5b506103ce6103c9366004612b00565b610cb1565b604080519283526020830191909152016102c4565b3480156103ef57600080fd5b50604051601281526020016102c4565b34801561040b57600080fd5b506102b861041a366004612a65565b610d84565b34801561042b57600080fd5b506102b861043a366004612b9f565b610da6565b34801561044b57600080fd5b5061038061045a366004612a33565b60036020526000908152604090205481565b34801561047857600080fd5b50610296610487366004612b9f565b610e72565b34801561049857600080fd5b50610380600081565b3480156104ad57600080fd5b506104b6600081565b60405161ffff90911681526020016102c4565b6102966104d7366004612bf3565b610ef8565b3480156104e857600080fd5b506103806104f7366004612d29565b6005602090815260009384526040808520845180860184018051928152908401958401959095209452929052825290205481565b34801561053757600080fd5b50610296610546366004612909565b610f7d565b34801561055757600080fd5b50610380610566366004612dcb565b6001600160a01b031660009081526007602052604090205490565b34801561058d57600080fd5b50610296611059565b3480156105a257600080fd5b506102e26105b1366004612a33565b61106d565b3480156105c257600080fd5b506103806105d1366004612de8565b600260209081526000928352604080842090915290825290205481565b3480156105fa57600080fd5b506000546001600160a01b03165b6040516001600160a01b0390911681526020016102c4565b34801561062c57600080fd5b50610380611107565b34801561064157600080fd5b50600454610608906001600160a01b031681565b34801561066157600080fd5b506102e2611117565b34801561067657600080fd5b506102e2610685366004612a33565b611126565b34801561069657600080fd5b506102b86106a5366004612a65565b61123d565b3480156106b657600080fd5b506102966106c5366004612b9f565b6112b8565b3480156106d657600080fd5b506102b86106e5366004612a65565b61134b565b3480156106f657600080fd5b506106087f000000000000000000000000000000000000000000000000000000000000000081565b34801561072a57600080fd5b50610296610739366004612dcb565b611359565b34801561074a57600080fd5b5061038061271081565b34801561076057600080fd5b5061029661076f366004612e21565b6113b6565b610296610782366004612909565b611440565b34801561079357600080fd5b506103806107a2366004612e93565b611656565b3480156107b357600080fd5b506102966107c2366004612ec1565b611681565b3480156107d357600080fd5b506102966107e2366004612ef1565b6116eb565b3480156107f357600080fd5b50610296610802366004612b9f565b611734565b34801561081357600080fd5b506006546102b89060ff1681565b34801561082d57600080fd5b5061029661083c366004612dcb565b61178e565b34801561084d57600080fd5b506102e261085c366004612f0c565b611807565b34801561086d57600080fd5b5030610608565b337f00000000000000000000000000000000000000000000000000000000000000006001600160a01b0316146108f15760405162461bcd60e51b815260206004820152601e60248201527f4c7a4170703a20696e76616c696420656e64706f696e742063616c6c6572000060448201526064015b60405180910390fd5b61ffff86166000908152600160205260408120805461090f90612f5d565b80601f016020809104026020016040519081016040528092919081815260200182805461093b90612f5d565b80156109885780601f1061095d57610100808354040283529160200191610988565b820191906000526020600020905b81548152906001019060200180831161096b57829003601f168201915b505050505090508051868690501480156109a3575060008151115b80156109cb5750805160208201206040516109c19088908890612f98565b6040518091039020145b610a265760405162461bcd60e51b815260206004820152602660248201527f4c7a4170703a20696e76616c696420736f757263652073656e64696e6720636f6044820152651b9d1c9858dd60d21b60648201526084016108e8565b610a9c8787878080601f01602080910402602001604051908101604052809392919081815260200183838082843760009201919091525050604080516020601f8a018190048102820181019092528881528a9350915088908890819084018382808284376000920191909152506118b892505050565b50505050505050565b60006001600160e01b031982161580610ace57506001600160e01b031982166336372b0760e01b145b80610add5750610add82611931565b92915050565b6060600a8054610af290612f5d565b80601f0160208091040260200160405190810160405280929190818152602001828054610b1e90612f5d565b8015610b6b5780601f10610b4057610100808354040283529160200191610b6b565b820191906000526020600020905b815481529060010190602001808311610b4e57829003601f168201915b5050505050905090565b610b7d611966565b6040516307e0db1760e01b815261ffff821660048201527f00000000000000000000000000000000000000000000000000000000000000006001600160a01b0316906307e0db17906024015b600060405180830381600087803b158015610be357600080fd5b505af1158015610bf7573d6000803e3d6000fd5b5050505050565b600033610c0c8185856119c0565b5060019392505050565b610c1e611966565b61ffff909116600090815260036020526040902055565b610c3d611966565b6040516310ddb13760e01b815261ffff821660048201527f00000000000000000000000000000000000000000000000000000000000000006001600160a01b0316906310ddb13790602401610bc9565b600033610c9b858285611ae4565b610ca6858585611b5e565b506001949350505050565b600080600080898989604051602001610ccd9493929190612fd1565b60408051601f198184030181529082905263040a7bb160e41b825291506001600160a01b037f000000000000000000000000000000000000000000000000000000000000000016906340a7bb1090610d33908d90309086908c908c908c90600401613000565b6040805180830381865afa158015610d4f573d6000803e3d6000fd5b505050506040513d601f19601f82011682018060405250810190610d739190613056565b925092505097509795505050505050565b600033610c0c818585610d978383611656565b610da19190613090565b6119c0565b61ffff831660009081526001602052604081208054829190610dc790612f5d565b80601f0160208091040260200160405190810160405280929190818152602001828054610df390612f5d565b8015610e405780601f10610e1557610100808354040283529160200191610e40565b820191906000526020600020905b815481529060010190602001808311610e2357829003601f168201915b505050505090508383604051610e57929190612f98565b60405180910390208180519060200120149150509392505050565b610e7a611966565b6040516342d65a8d60e01b81526001600160a01b037f000000000000000000000000000000000000000000000000000000000000000016906342d65a8d90610eca908690869086906004016130a8565b600060405180830381600087803b158015610ee457600080fd5b505af1158015610a9c573d6000803e3d6000fd5b610f72898989898080601f01602080910402602001604051908101604052809392919081815260200183838082843760009201919091525050604080516020601f8a018190048102820181019092528881528c93508b92508a918a908a9081908401838280828437600092019190915250611d0992505050565b505050505050505050565b333014610fdb5760405162461bcd60e51b815260206004820152602660248201527f4e6f6e626c6f636b696e674c7a4170703a2063616c6c6572206d7573742062656044820152650204c7a4170760d41b60648201526084016108e8565b6110518686868080601f01602080910402602001604051908101604052809392919081815260200183838082843760009201919091525050604080516020601f890181900481028201810190925287815289935091508790879081908401838280828437600092019190915250611db092505050565b505050505050565b611061611966565b61106b6000611e17565b565b6001602052600090815260409020805461108690612f5d565b80601f01602080910402602001604051908101604052809291908181526020018280546110b290612f5d565b80156110ff5780601f106110d4576101008083540402835291602001916110ff565b820191906000526020600020905b8154815290600101906020018083116110e257829003601f168201915b505050505081565b600061111260095490565b905090565b6060600b8054610af290612f5d565b61ffff811660009081526001602052604081208054606092919061114990612f5d565b80601f016020809104026020016040519081016040528092919081815260200182805461117590612f5d565b80156111c25780601f10611197576101008083540402835291602001916111c2565b820191906000526020600020905b8154815290600101906020018083116111a557829003601f168201915b5050505050905080516000141561121b5760405162461bcd60e51b815260206004820152601d60248201527f4c7a4170703a206e6f20747275737465642070617468207265636f726400000060448201526064016108e8565b61123660006014835161122e91906130c6565b839190611e67565b9392505050565b6000338161124b8286611656565b9050838110156112ab5760405162461bcd60e51b815260206004820152602560248201527f45524332303a2064656372656173656420616c6c6f77616e63652062656c6f77604482015264207a65726f60d81b60648201526084016108e8565b610ca682868684036119c0565b6112c0611966565b8181306040516020016112d5939291906130dd565b60408051601f1981840301815291815261ffff8516600090815260016020908152919020825161130a93919290910190612788565b507f8c0400cfe2d1199b1a725c78960bcc2a344d869b80590d0f2bd005db15a572ce83838360405161133e939291906130a8565b60405180910390a1505050565b600033610c0c818585611b5e565b611361611966565b600480546001600160a01b0319166001600160a01b0383169081179091556040519081527f5db758e995a17ec1ad84bdef7e8c3293a0bd6179bcce400dff5d4c3d87db726b906020015b60405180910390a150565b6113be611966565b6040516332fb62e760e21b81526001600160a01b037f0000000000000000000000000000000000000000000000000000000000000000169063cbed8b9c906114129088908890889088908890600401613103565b600060405180830381600087803b15801561142c57600080fd5b505af1158015610f72573d6000803e3d6000fd5b61ffff861660009081526005602052604080822090516114639088908890612f98565b90815260408051602092819003830190206001600160401b038716600090815292529020549050806114e35760405162461bcd60e51b815260206004820152602360248201527f4e6f6e626c6f636b696e674c7a4170703a206e6f2073746f726564206d65737360448201526261676560e81b60648201526084016108e8565b8083836040516114f4929190612f98565b6040518091039020146115535760405162461bcd60e51b815260206004820152602160248201527f4e6f6e626c6f636b696e674c7a4170703a20696e76616c6964207061796c6f616044820152601960fa1b60648201526084016108e8565b61ffff871660009081526005602052604080822090516115769089908990612f98565b90815260408051602092819003830181206001600160401b038916600090815290845282902093909355601f8801829004820283018201905286825261160e918991899089908190840183828082843760009201919091525050604080516020601f8a018190048102820181019092528881528a935091508890889081908401838280828437600092019190915250611db092505050565b7fc264d91f3adc5588250e1551f547752ca0cfa8f6b530d243b9f9f4cab10ea8e5878787878560405161164595949392919061313c565b60405180910390a150505050505050565b6001600160a01b03918216600090815260086020908152604080832093909416825291909152205490565b611689611966565b61ffff83811660008181526002602090815260408083209487168084529482529182902085905581519283528201929092529081018290527f9d5c7c0b934da8fefa9c7760c98383778a12dfbfc0c3b3106518f43fb9508ac09060600161133e565b6116f3611966565b6006805460ff19168215159081179091556040519081527f1584ad594a70cbe1e6515592e1272a987d922b097ead875069cebe8b40c004a4906020016113ab565b61173c611966565b61ffff8316600090815260016020526040902061175a90838361280c565b507ffa41487ad5d6728f0b19276fa1eddc16558578f5109fc39d2dc33c3230470dab83838360405161133e939291906130a8565b611796611966565b6001600160a01b0381166117fb5760405162461bcd60e51b815260206004820152602660248201527f4f776e61626c653a206e6577206f776e657220697320746865207a65726f206160448201526564647265737360d01b60648201526084016108e8565b61180481611e17565b50565b604051633d7b2f6f60e21b815261ffff808616600483015284166024820152306044820152606481018290526060907f00000000000000000000000000000000000000000000000000000000000000006001600160a01b03169063f5ecbdbc90608401600060405180830381865afa158015611887573d6000803e3d6000fd5b505050506040513d6000823e601f3d908101601f191682016040526118af91908101906131c4565b95945050505050565b60008061191b5a60966366ad5c8a60e01b898989896040516024016118e094939291906131f8565b60408051601f198184030181529190526020810180516001600160e01b03166001600160e01b03199093169290921790915230929190611f74565b9150915081611051576110518686868685611ffe565b60006001600160e01b03198216630a72677560e11b1480610add57506301ffc9a760e01b6001600160e01b0319831614610add565b6000546001600160a01b0316331461106b5760405162461bcd60e51b815260206004820181905260248201527f4f776e61626c653a2063616c6c6572206973206e6f7420746865206f776e657260448201526064016108e8565b6001600160a01b038316611a225760405162461bcd60e51b8152602060048201526024808201527f45524332303a20617070726f76652066726f6d20746865207a65726f206164646044820152637265737360e01b60648201526084016108e8565b6001600160a01b038216611a835760405162461bcd60e51b815260206004820152602260248201527f45524332303a20617070726f766520746f20746865207a65726f206164647265604482015261737360f01b60648201526084016108e8565b6001600160a01b0383811660008181526008602090815260408083209487168084529482529182902085905590518481527f8c5be1e5ebec7d5bd14f71427d1e84f3dd0314c0f7b2291e5b200ac8c7c3b925910160405180910390a3505050565b6000611af08484611656565b90506000198114611b585781811015611b4b5760405162461bcd60e51b815260206004820152601d60248201527f45524332303a20696e73756666696369656e7420616c6c6f77616e636500000060448201526064016108e8565b611b5884848484036119c0565b50505050565b6001600160a01b038316611bc25760405162461bcd60e51b815260206004820152602560248201527f45524332303a207472616e736665722066726f6d20746865207a65726f206164604482015264647265737360d81b60648201526084016108e8565b6001600160a01b038216611c245760405162461bcd60e51b815260206004820152602360248201527f45524332303a207472616e7366657220746f20746865207a65726f206164647260448201526265737360e81b60648201526084016108e8565b6001600160a01b03831660009081526007602052604090205481811015611c9c5760405162461bcd60e51b815260206004820152602660248201527f45524332303a207472616e7366657220616d6f756e7420657863656564732062604482015265616c616e636560d01b60648201526084016108e8565b6001600160a01b0380851660008181526007602052604080822086860390559286168082529083902080548601905591517fddf252ad1be2c89b69c2b068fc378daa952ba7f163c4a11628f55a4df523b3ef90611cfc9086815260200190565b60405180910390a3611b58565b611d178660008360006120a0565b6000611d258888888861211a565b90506000808783604051602001611d3e93929190613236565b6040516020818303038152906040529050611d5d88828787873461214c565b886001600160a01b03168861ffff167f39a4c66499bcf4b56d79f0dde8ed7a9d4925a0df55825206b2b8531e202be0d08985604051611d9d929190613263565b60405180910390a3505050505050505050565b602081015161ffff8116611dcf57611dca858585856122f2565b610bf7565b60405162461bcd60e51b815260206004820152601c60248201527f4f4654436f72653a20756e6b6e6f776e207061636b657420747970650000000060448201526064016108e8565b600080546001600160a01b038381166001600160a01b0319831681178455604051919092169283917f8be0079c531659141344cd1fd0a4f28419497f9722a3daafe3b4186f6b6457e09190a35050565b606081611e7581601f613090565b1015611eb45760405162461bcd60e51b815260206004820152600e60248201526d736c6963655f6f766572666c6f7760901b60448201526064016108e8565b611ebe8284613090565b84511015611f025760405162461bcd60e51b8152602060048201526011602482015270736c6963655f6f75744f66426f756e647360781b60448201526064016108e8565b606082158015611f215760405191506000825260208201604052611f6b565b6040519150601f8416801560200281840101858101878315602002848b0101015b81831015611f5a578051835260209283019201611f42565b5050858452601f01601f1916604052505b50949350505050565b6000606060008060008661ffff166001600160401b03811115611f9957611f99612cbc565b6040519080825280601f01601f191660200182016040528015611fc3576020820181803683370190505b50905060008087516020890160008d8df191503d925086831115611fe5578692505b828152826000602083013e909890975095505050505050565b8180519060200120600560008761ffff1661ffff1681526020019081526020016000208560405161202f9190613285565b9081526040805191829003602090810183206001600160401b0388166000908152915220919091557fe183f33de2837795525b4792ca4cd60535bd77c53b7e7030060bfcf5734d6b0c9061208c90879087908790879087906132a1565b60405180910390a15050505050565b505050565b60065460ff16156120bc576120b78484848461237c565b611b58565b815115611b585760405162461bcd60e51b815260206004820152602660248201527f4f4654436f72653a205f61646170746572506172616d73206d7573742062652060448201526532b6b83a3c9760d11b60648201526084016108e8565b6000336001600160a01b038616811461213857612138868285611ae4565b6121428684612451565b5090949350505050565b61ffff86166000908152600160205260408120805461216a90612f5d565b80601f016020809104026020016040519081016040528092919081815260200182805461219690612f5d565b80156121e35780601f106121b8576101008083540402835291602001916121e3565b820191906000526020600020905b8154815290600101906020018083116121c657829003601f168201915b505050505090508051600014156122555760405162461bcd60e51b815260206004820152603060248201527f4c7a4170703a2064657374696e6174696f6e20636861696e206973206e6f742060448201526f61207472757374656420736f7572636560801b60648201526084016108e8565b612260878751612585565b60405162c5803160e81b81526001600160a01b037f0000000000000000000000000000000000000000000000000000000000000000169063c58031009084906122b7908b9086908c908c908c908c906004016132ff565b6000604051808303818588803b1580156122d057600080fd5b505af11580156122e4573d6000803e3d6000fd5b505050505050505050505050565b600080828060200190518101906123099190613359565b90935091506000905061231c83826125f3565b9050612329878284612658565b9150806001600160a01b03168761ffff167fbf551ec93859b170f9b2141bd9298bf3f64322c6f7beb2543a0cb669834118bf8460405161236b91815260200190565b60405180910390a350505050505050565b60006123878361266b565b61ffff808716600090815260026020908152604080832093891683529290522054909150806123f85760405162461bcd60e51b815260206004820152601a60248201527f4c7a4170703a206d696e4761734c696d6974206e6f742073657400000000000060448201526064016108e8565b6124028382613090565b8210156110515760405162461bcd60e51b815260206004820152601b60248201527f4c7a4170703a20676173206c696d697420697320746f6f206c6f77000000000060448201526064016108e8565b6001600160a01b0382166124b15760405162461bcd60e51b815260206004820152602160248201527f45524332303a206275726e2066726f6d20746865207a65726f206164647265736044820152607360f81b60648201526084016108e8565b6001600160a01b038216600090815260076020526040902054818110156125255760405162461bcd60e51b815260206004820152602260248201527f45524332303a206275726e20616d6f756e7420657863656564732062616c616e604482015261636560f01b60648201526084016108e8565b6001600160a01b03831660008181526007602090815260408083208686039055600980548790039055518581529192917fddf252ad1be2c89b69c2b068fc378daa952ba7f163c4a11628f55a4df523b3ef910160405180910390a3505050565b61ffff8216600090815260036020526040902054806125a357506127105b8082111561209b5760405162461bcd60e51b815260206004820181905260248201527f4c7a4170703a207061796c6f61642073697a6520697320746f6f206c6172676560448201526064016108e8565b6000612600826014613090565b835110156126485760405162461bcd60e51b8152602060048201526015602482015274746f416464726573735f6f75744f66426f756e647360581b60448201526064016108e8565b500160200151600160601b900490565b600061266483836126c7565b5092915050565b60006022825110156126bf5760405162461bcd60e51b815260206004820152601c60248201527f4c7a4170703a20696e76616c69642061646170746572506172616d730000000060448201526064016108e8565b506022015190565b6001600160a01b03821661271d5760405162461bcd60e51b815260206004820152601f60248201527f45524332303a206d696e7420746f20746865207a65726f20616464726573730060448201526064016108e8565b806009600082825461272f9190613090565b90915550506001600160a01b0382166000818152600760209081526040808320805486019055518481527fddf252ad1be2c89b69c2b068fc378daa952ba7f163c4a11628f55a4df523b3ef910160405180910390a35050565b82805461279490612f5d565b90600052602060002090601f0160209004810192826127b657600085556127fc565b82601f106127cf57805160ff19168380011785556127fc565b828001600101855582156127fc579182015b828111156127fc5782518255916020019190600101906127e1565b50612808929150612880565b5090565b82805461281890612f5d565b90600052602060002090601f01602090048101928261283a57600085556127fc565b82601f106128535782800160ff198235161785556127fc565b828001600101855582156127fc579182015b828111156127fc578235825591602001919060010190612865565b5b808211156128085760008155600101612881565b61ffff8116811461180457600080fd5b60008083601f8401126128b757600080fd5b5081356001600160401b038111156128ce57600080fd5b6020830191508360208285010111156128e657600080fd5b9250929050565b80356001600160401b038116811461290457600080fd5b919050565b6000806000806000806080878903121561292257600080fd5b863561292d81612895565b955060208701356001600160401b038082111561294957600080fd5b6129558a838b016128a5565b909750955085915061296960408a016128ed565b9450606089013591508082111561297f57600080fd5b5061298c89828a016128a5565b979a9699509497509295939492505050565b6000602082840312156129b057600080fd5b81356001600160e01b03198116811461123657600080fd5b60005b838110156129e35781810151838201526020016129cb565b83811115611b585750506000910152565b60008151808452612a0c8160208601602086016129c8565b601f01601f19169290920160200192915050565b60208152600061123660208301846129f4565b600060208284031215612a4557600080fd5b813561123681612895565b6001600160a01b038116811461180457600080fd5b60008060408385031215612a7857600080fd5b8235612a8381612a50565b946020939093013593505050565b60008060408385031215612aa457600080fd5b8235612a8381612895565b600080600060608486031215612ac457600080fd5b8335612acf81612a50565b92506020840135612adf81612a50565b929592945050506040919091013590565b8035801515811461290457600080fd5b600080600080600080600060a0888a031215612b1b57600080fd5b8735612b2681612895565b965060208801356001600160401b0380821115612b4257600080fd5b612b4e8b838c016128a5565b909850965060408a01359550869150612b6960608b01612af0565b945060808a0135915080821115612b7f57600080fd5b50612b8c8a828b016128a5565b989b979a50959850939692959293505050565b600080600060408486031215612bb457600080fd5b8335612bbf81612895565b925060208401356001600160401b03811115612bda57600080fd5b612be6868287016128a5565b9497909650939450505050565b600080600080600080600080600060e08a8c031215612c1157600080fd5b8935612c1c81612a50565b985060208a0135612c2c81612895565b975060408a01356001600160401b0380821115612c4857600080fd5b612c548d838e016128a5565b909950975060608c0135965060808c01359150612c7082612a50565b90945060a08b013590612c8282612a50565b90935060c08b01359080821115612c9857600080fd5b50612ca58c828d016128a5565b915080935050809150509295985092959850929598565b634e487b7160e01b600052604160045260246000fd5b604051601f8201601f191681016001600160401b0381118282101715612cfa57612cfa612cbc565b604052919050565b60006001600160401b03821115612d1b57612d1b612cbc565b50601f01601f191660200190565b600080600060608486031215612d3e57600080fd5b8335612d4981612895565b925060208401356001600160401b03811115612d6457600080fd5b8401601f81018613612d7557600080fd5b8035612d88612d8382612d02565b612cd2565b818152876020838501011115612d9d57600080fd5b81602084016020830137600060208383010152809450505050612dc2604085016128ed565b90509250925092565b600060208284031215612ddd57600080fd5b813561123681612a50565b60008060408385031215612dfb57600080fd5b8235612e0681612895565b91506020830135612e1681612895565b809150509250929050565b600080600080600060808688031215612e3957600080fd5b8535612e4481612895565b94506020860135612e5481612895565b93506040860135925060608601356001600160401b03811115612e7657600080fd5b612e82888289016128a5565b969995985093965092949392505050565b60008060408385031215612ea657600080fd5b8235612eb181612a50565b91506020830135612e1681612a50565b600080600060608486031215612ed657600080fd5b8335612ee181612895565b92506020840135612adf81612895565b600060208284031215612f0357600080fd5b61123682612af0565b60008060008060808587031215612f2257600080fd5b8435612f2d81612895565b93506020850135612f3d81612895565b92506040850135612f4d81612a50565b9396929550929360600135925050565b600181811c90821680612f7157607f821691505b60208210811415612f9257634e487b7160e01b600052602260045260246000fd5b50919050565b8183823760009101908152919050565b81835281816020850137506000828201602090810191909152601f909101601f19169091010190565b61ffff85168152606060208201526000612fef606083018587612fa8565b905082604083015295945050505050565b61ffff871681526001600160a01b038616602082015260a06040820181905260009061302e908301876129f4565b85151560608401528281036080840152613049818587612fa8565b9998505050505050505050565b6000806040838503121561306957600080fd5b505080516020909101519092909150565b634e487b7160e01b600052601160045260246000fd5b600082198211156130a3576130a361307a565b500190565b61ffff841681526040602082015260006118af604083018486612fa8565b6000828210156130d8576130d861307a565b500390565b8284823760609190911b6bffffffffffffffffffffffff19169101908152601401919050565b600061ffff808816835280871660208401525084604083015260806060830152613131608083018486612fa8565b979650505050505050565b61ffff8616815260806020820152600061315a608083018688612fa8565b6001600160401b0394909416604083015250606001529392505050565b600082601f83011261318857600080fd5b8151613196612d8382612d02565b8181528460208386010111156131ab57600080fd5b6131bc8260208301602087016129c8565b949350505050565b6000602082840312156131d657600080fd5b81516001600160401b038111156131ec57600080fd5b6131bc84828501613177565b61ffff8516815260806020820152600061321560808301866129f4565b6001600160401b0385166040840152828103606084015261313181856129f4565b61ffff8416815260606020820152600061325360608301856129f4565b9050826040830152949350505050565b60408152600061327660408301856129f4565b90508260208301529392505050565b600082516132978184602087016129c8565b9190910192915050565b61ffff8616815260a0602082015260006132be60a08301876129f4565b6001600160401b038616604084015282810360608401526132df81866129f4565b905082810360808401526132f381856129f4565b98975050505050505050565b61ffff8716815260c06020820152600061331c60c08301886129f4565b828103604084015261332e81886129f4565b6001600160a01b0387811660608601528616608085015283810360a0850152905061304981856129f4565b60008060006060848603121561336e57600080fd5b835161337981612895565b60208501519093506001600160401b0381111561339557600080fd5b6133a186828701613177565b92505060408401519050925092509256fea2646970667358221220fd4f0e13e484002a60e2cd971aa356d9c7b67995ff4f4a51f9b7e49db83f24ce64736f6c634300080c0033",
  "devdoc": {
    "kind": "dev",
    "methods": {
      "allowance(address,address)": {
        "details": "See {IERC20-allowance}."
      },
      "approve(address,uint256)": {
        "details": "See {IERC20-approve}. NOTE: If `amount` is the maximum `uint256`, the allowance is not updated on `transferFrom`. This is semantically equivalent to an infinite approval. Requirements: - `spender` cannot be the zero address."
      },
      "balanceOf(address)": {
        "details": "See {IERC20-balanceOf}."
      },
      "circulatingSupply()": {
        "details": "returns the circulating amount of tokens on current chain"
      },
      "decimals()": {
        "details": "Returns the number of decimals used to get its user representation. For example, if `decimals` equals `2`, a balance of `505` tokens should be displayed to a user as `5.05` (`505 / 10 ** 2`). Tokens usually opt for a value of 18, imitating the relationship between Ether and Wei. This is the default value returned by this function, unless it's overridden. NOTE: This information is only used for _display_ purposes: it in no way affects any of the arithmetic of the contract, including {IERC20-balanceOf} and {IERC20-transfer}."
      },
      "decreaseAllowance(address,uint256)": {
        "details": "Atomically decreases the allowance granted to `spender` by the caller. This is an alternative to {approve} that can be used as a mitigation for problems described in {IERC20-approve}. Emits an {Approval} event indicating the updated allowance. Requirements: - `spender` cannot be the zero address. - `spender` must have allowance for the caller of at least `subtractedValue`."
      },
      "estimateSendFee(uint16,bytes,uint256,bool,bytes)": {
        "details": "estimate send token `_tokenId` to (`_dstChainId`, `_toAddress`) _dstChainId - L0 defined chain id to send tokens too _toAddress - dynamic bytes array which contains the address to whom you are sending tokens to on the dstChain _amount - amount of the tokens to transfer _useZro - indicates to use zro to pay L0 fees _adapterParam - flexible bytes array to indicate messaging adapter services in L0"
      },
      "increaseAllowance(address,uint256)": {
        "details": "Atomically increases the allowance granted to `spender` by the caller. This is an alternative to {approve} that can be used as a mitigation for problems described in {IERC20-approve}. Emits an {Approval} event indicating the updated allowance. Requirements: - `spender` cannot be the zero address."
      },
      "name()": {
        "details": "Returns the name of the token."
      },
      "owner()": {
        "details": "Returns the address of the current owner."
      },
      "renounceOwnership()": {
        "details": "Leaves the contract without owner. It will not be possible to call `onlyOwner` functions. Can only be called by the current owner. NOTE: Renouncing ownership will leave the contract without an owner, thereby disabling any functionality that is only available to the owner."
      },
      "sendFrom(address,uint16,bytes,uint256,address,address,bytes)": {
        "details": "send `_amount` amount of token to (`_dstChainId`, `_toAddress`) from `_from` `_from` the owner of token `_dstChainId` the destination chain identifier `_toAddress` can be any size depending on the `dstChainId`. `_amount` the quantity of tokens in wei `_refundAddress` the address LayerZero refunds if too much message fee is sent `_zroPaymentAddress` set to address(0x0) if not paying in ZRO (LayerZero Token) `_adapterParams` is a flexible bytes array to indicate messaging adapter services"
      },
      "symbol()": {
        "details": "Returns the symbol of the token, usually a shorter version of the name."
      },
      "token()": {
        "details": "returns the address of the ERC20 token"
      },
      "totalSupply()": {
        "details": "See {IERC20-totalSupply}."
      },
      "transfer(address,uint256)": {
        "details": "See {IERC20-transfer}. Requirements: - `to` cannot be the zero address. - the caller must have a balance of at least `amount`."
      },
      "transferFrom(address,address,uint256)": {
        "details": "See {IERC20-transferFrom}. Emits an {Approval} event indicating the updated allowance. This is not required by the EIP. See the note at the beginning of {ERC20}. NOTE: Does not update the allowance if the current allowance is the maximum `uint256`. Requirements: - `from` and `to` cannot be the zero address. - `from` must have a balance of at least `amount`. - the caller must have allowance for ``from``'s tokens of at least `amount`."
      },
      "transferOwnership(address)": {
        "details": "Transfers ownership of the contract to a new account (`newOwner`). Can only be called by the current owner."
      }
    },
    "version": 1
  },
  "userdoc": {
    "kind": "user",
    "methods": {},
    "version": 1
  },
  "storageLayout": {
    "storage": [
      {
        "astId": 7,
        "contract": "contracts/token/oft/v1/OFT.sol:OFT",
        "label": "_owner",
        "offset": 0,
        "slot": "0",
        "type": "t_address"
      },
      {
        "astId": 6657,
        "contract": "contracts/token/oft/v1/OFT.sol:OFT",
        "label": "trustedRemoteLookup",
        "offset": 0,
        "slot": "1",
        "type": "t_mapping(t_uint16,t_bytes_storage)"
      },
      {
        "astId": 6663,
        "contract": "contracts/token/oft/v1/OFT.sol:OFT",
        "label": "minDstGasLookup",
        "offset": 0,
        "slot": "2",
        "type": "t_mapping(t_uint16,t_mapping(t_uint16,t_uint256))"
      },
      {
        "astId": 6667,
        "contract": "contracts/token/oft/v1/OFT.sol:OFT",
        "label": "payloadSizeLimitLookup",
        "offset": 0,
        "slot": "3",
        "type": "t_mapping(t_uint16,t_uint256)"
      },
      {
        "astId": 6669,
        "contract": "contracts/token/oft/v1/OFT.sol:OFT",
        "label": "precrime",
        "offset": 0,
        "slot": "4",
        "type": "t_address"
      },
      {
        "astId": 7199,
        "contract": "contracts/token/oft/v1/OFT.sol:OFT",
        "label": "failedMessages",
        "offset": 0,
        "slot": "5",
        "type": "t_mapping(t_uint16,t_mapping(t_bytes_memory_ptr,t_mapping(t_uint64,t_bytes32)))"
      },
      {
        "astId": 9770,
        "contract": "contracts/token/oft/v1/OFT.sol:OFT",
        "label": "useCustomAdapterParams",
        "offset": 0,
        "slot": "6",
        "type": "t_bool"
      },
      {
        "astId": 1594,
        "contract": "contracts/token/oft/v1/OFT.sol:OFT",
        "label": "_balances",
        "offset": 0,
        "slot": "7",
        "type": "t_mapping(t_address,t_uint256)"
      },
      {
        "astId": 1600,
        "contract": "contracts/token/oft/v1/OFT.sol:OFT",
        "label": "_allowances",
        "offset": 0,
        "slot": "8",
        "type": "t_mapping(t_address,t_mapping(t_address,t_uint256))"
      },
      {
        "astId": 1602,
        "contract": "contracts/token/oft/v1/OFT.sol:OFT",
        "label": "_totalSupply",
        "offset": 0,
        "slot": "9",
        "type": "t_uint256"
      },
      {
        "astId": 1604,
        "contract": "contracts/token/oft/v1/OFT.sol:OFT",
        "label": "_name",
        "offset": 0,
        "slot": "10",
        "type": "t_string_storage"
      },
      {
        "astId": 1606,
        "contract": "contracts/token/oft/v1/OFT.sol:OFT",
        "label": "_symbol",
        "offset": 0,
        "slot": "11",
        "type": "t_string_storage"
      }
    ],
    "types": {
      "t_address": {
        "encoding": "inplace",
        "label": "address",
        "numberOfBytes": "20"
      },
      "t_bool": {
        "encoding": "inplace",
        "label": "bool",
        "numberOfBytes": "1"
      },
      "t_bytes32": {
        "encoding": "inplace",
        "label": "bytes32",
        "numberOfBytes": "32"
      },
      "t_bytes_memory_ptr": {
        "encoding": "bytes",
        "label": "bytes",
        "numberOfBytes": "32"
      },
      "t_bytes_storage": {
        "encoding": "bytes",
        "label": "bytes",
        "numberOfBytes": "32"
      },
      "t_mapping(t_address,t_mapping(t_address,t_uint256))": {
        "encoding": "mapping",
        "key": "t_address",
        "label": "mapping(address => mapping(address => uint256))",
        "numberOfBytes": "32",
        "value": "t_mapping(t_address,t_uint256)"
      },
      "t_mapping(t_address,t_uint256)": {
        "encoding": "mapping",
        "key": "t_address",
        "label": "mapping(address => uint256)",
        "numberOfBytes": "32",
        "value": "t_uint256"
      },
      "t_mapping(t_bytes_memory_ptr,t_mapping(t_uint64,t_bytes32))": {
        "encoding": "mapping",
        "key": "t_bytes_memory_ptr",
        "label": "mapping(bytes => mapping(uint64 => bytes32))",
        "numberOfBytes": "32",
        "value": "t_mapping(t_uint64,t_bytes32)"
      },
      "t_mapping(t_uint16,t_bytes_storage)": {
        "encoding": "mapping",
        "key": "t_uint16",
        "label": "mapping(uint16 => bytes)",
        "numberOfBytes": "32",
        "value": "t_bytes_storage"
      },
      "t_mapping(t_uint16,t_mapping(t_bytes_memory_ptr,t_mapping(t_uint64,t_bytes32)))": {
        "encoding": "mapping",
        "key": "t_uint16",
        "label": "mapping(uint16 => mapping(bytes => mapping(uint64 => bytes32)))",
        "numberOfBytes": "32",
        "value": "t_mapping(t_bytes_memory_ptr,t_mapping(t_uint64,t_bytes32))"
      },
      "t_mapping(t_uint16,t_mapping(t_uint16,t_uint256))": {
        "encoding": "mapping",
        "key": "t_uint16",
        "label": "mapping(uint16 => mapping(uint16 => uint256))",
        "numberOfBytes": "32",
        "value": "t_mapping(t_uint16,t_uint256)"
      },
      "t_mapping(t_uint16,t_uint256)": {
        "encoding": "mapping",
        "key": "t_uint16",
        "label": "mapping(uint16 => uint256)",
        "numberOfBytes": "32",
        "value": "t_uint256"
      },
      "t_mapping(t_uint64,t_bytes32)": {
        "encoding": "mapping",
        "key": "t_uint64",
        "label": "mapping(uint64 => bytes32)",
        "numberOfBytes": "32",
        "value": "t_bytes32"
      },
      "t_string_storage": {
        "encoding": "bytes",
        "label": "string",
        "numberOfBytes": "32"
      },
      "t_uint16": {
        "encoding": "inplace",
        "label": "uint16",
        "numberOfBytes": "2"
      },
      "t_uint256": {
        "encoding": "inplace",
        "label": "uint256",
        "numberOfBytes": "32"
      },
      "t_uint64": {
        "encoding": "inplace",
        "label": "uint64",
        "numberOfBytes": "8"
      }
    }
  }
}