{
  "address": "0x7968Ab2734352Bc52106C62eA1f45EbB78e5787d",
  "abi": [
    {
      "inputs": [
        {
          "internalType": "address",
          "name": "_lzEndpoint",
          "type": "address"
        },
        {
          "internalType": "address",
          "name": "_token",
          "type": "address"
        }
      ],
      "stateMutability": "nonpayable",
      "type": "constructor"
    },
    {
      "anonymous": false,
      "inputs": [
        {
          "indexed": false,
          "internalType": "uint16",
          "name": "_srcChainId",
          "type": "uint16"
        },
        {
          "indexed": false,
          "internalType": "bytes",
          "name": "_srcAddress",
          "type": "bytes"
        },
        {
          "indexed": false,
          "internalType": "uint64",
          "name": "_nonce",
          "type": "uint64"
        },
        {
          "indexed": false,
          "internalType": "bytes",
          "name": "_payload",
          "type": "bytes"
        },
        {
          "indexed": false,
          "internalType": "bytes",
          "name": "_reason",
          "type": "bytes"
        }
      ],
      "name": "MessageFailed",
      "type": "event"
    },
    {
      "anonymous": false,
      "inputs": [
        {
          "indexed": true,
          "internalType": "address",
          "name": "previousOwner",
          "type": "address"
        },
        {
          "indexed": true,
          "internalType": "address",
          "name": "newOwner",
          "type": "address"
        }
      ],
      "name": "OwnershipTransferred",
      "type": "event"
    },
    {
      "anonymous": false,
      "inputs": [
        {
          "indexed": true,
          "internalType": "uint16",
          "name": "_srcChainId",
          "type": "uint16"
        },
        {
          "indexed": true,
          "internalType": "address",
          "name": "_to",
          "type": "address"
        },
        {
          "indexed": false,
          "internalType": "uint256",
          "name": "_amount",
          "type": "uint256"
        }
      ],
      "name": "ReceiveFromChain",
      "type": "event"
    },
    {
      "anonymous": false,
      "inputs": [
        {
          "indexed": false,
          "internalType": "uint16",
          "name": "_srcChainId",
          "type": "uint16"
        },
        {
          "indexed": false,
          "internalType": "bytes",
          "name": "_srcAddress",
          "type": "bytes"
        },
        {
          "indexed": false,
          "internalType": "uint64",
          "name": "_nonce",
          "type": "uint64"
        },
        {
          "indexed": false,
          "internalType": "bytes32",
          "name": "_payloadHash",
          "type": "bytes32"
        }
      ],
      "name": "RetryMessageSuccess",
      "type": "event"
    },
    {
      "anonymous": false,
      "inputs": [
        {
          "indexed": true,
          "internalType": "uint16",
          "name": "_dstChainId",
          "type": "uint16"
        },
        {
          "indexed": true,
          "internalType": "address",
          "name": "_from",
          "type": "address"
        },
        {
          "indexed": false,
          "internalType": "bytes",
          "name": "_toAddress",
          "type": "bytes"
        },
        {
          "indexed": false,
          "internalType": "uint256",
          "name": "_amount",
          "type": "uint256"
        }
      ],
      "name": "SendToChain",
      "type": "event"
    },
    {
      "anonymous": false,
      "inputs": [
        {
          "indexed": false,
          "internalType": "uint16",
          "name": "_dstChainId",
          "type": "uint16"
        },
        {
          "indexed": false,
          "internalType": "uint16",
          "name": "_type",
          "type": "uint16"
        },
        {
          "indexed": false,
          "internalType": "uint256",
          "name": "_minDstGas",
          "type": "uint256"
        }
      ],
      "name": "SetMinDstGas",
      "type": "event"
    },
    {
      "anonymous": false,
      "inputs": [
        {
          "indexed": false,
          "internalType": "address",
          "name": "precrime",
          "type": "address"
        }
      ],
      "name": "SetPrecrime",
      "type": "event"
    },
    {
      "anonymous": false,
      "inputs": [
        {
          "indexed": false,
          "internalType": "uint16",
          "name": "_remoteChainId",
          "type": "uint16"
        },
        {
          "indexed": false,
          "internalType": "bytes",
          "name": "_path",
          "type": "bytes"
        }
      ],
      "name": "SetTrustedRemote",
      "type": "event"
    },
    {
      "anonymous": false,
      "inputs": [
        {
          "indexed": false,
          "internalType": "uint16",
          "name": "_remoteChainId",
          "type": "uint16"
        },
        {
          "indexed": false,
          "internalType": "bytes",
          "name": "_remoteAddress",
          "type": "bytes"
        }
      ],
      "name": "SetTrustedRemoteAddress",
      "type": "event"
    },
    {
      "anonymous": false,
      "inputs": [
        {
          "indexed": false,
          "internalType": "bool",
          "name": "_useCustomAdapterParams",
          "type": "bool"
        }
      ],
      "name": "SetUseCustomAdapterParams",
      "type": "event"
    },
    {
      "inputs": [],
      "name": "DEFAULT_PAYLOAD_SIZE_LIMIT",
      "outputs": [
        {
          "internalType": "uint256",
          "name": "",
          "type": "uint256"
        }
      ],
      "stateMutability": "view",
      "type": "function"
    },
    {
      "inputs": [],
      "name": "NO_EXTRA_GAS",
      "outputs": [
        {
          "internalType": "uint256",
          "name": "",
          "type": "uint256"
        }
      ],
      "stateMutability": "view",
      "type": "function"
    },
    {
      "inputs": [],
      "name": "PT_SEND",
      "outputs": [
        {
          "internalType": "uint16",
          "name": "",
          "type": "uint16"
        }
      ],
      "stateMutability": "view",
      "type": "function"
    },
    {
      "inputs": [],
      "name": "circulatingSupply",
      "outputs": [
        {
          "internalType": "uint256",
          "name": "",
          "type": "uint256"
        }
      ],
      "stateMutability": "view",
      "type": "function"
    },
    {
      "inputs": [
        {
          "internalType": "uint16",
          "name": "_dstChainId",
          "type": "uint16"
        },
        {
          "internalType": "bytes",
          "name": "_toAddress",
          "type": "bytes"
        },
        {
          "internalType": "uint256",
          "name": "_amount",
          "type": "uint256"
        },
        {
          "internalType": "bool",
          "name": "_useZro",
          "type": "bool"
        },
        {
          "internalType": "bytes",
          "name": "_adapterParams",
          "type": "bytes"
        }
      ],
      "name": "estimateSendFee",
      "outputs": [
        {
          "internalType": "uint256",
          "name": "nativeFee",
          "type": "uint256"
        },
        {
          "internalType": "uint256",
          "name": "zroFee",
          "type": "uint256"
        }
      ],
      "stateMutability": "view",
      "type": "function"
    },
    {
      "inputs": [
        {
          "internalType": "uint16",
          "name": "",
          "type": "uint16"
        },
        {
          "internalType": "bytes",
          "name": "",
          "type": "bytes"
        },
        {
          "internalType": "uint64",
          "name": "",
          "type": "uint64"
        }
      ],
      "name": "failedMessages",
      "outputs": [
        {
          "internalType": "bytes32",
          "name": "",
          "type": "bytes32"
        }
      ],
      "stateMutability": "view",
      "type": "function"
    },
    {
      "inputs": [
        {
          "internalType": "uint16",
          "name": "_srcChainId",
          "type": "uint16"
        },
        {
          "internalType": "bytes",
          "name": "_srcAddress",
          "type": "bytes"
        }
      ],
      "name": "forceResumeReceive",
      "outputs": [],
      "stateMutability": "nonpayable",
      "type": "function"
    },
    {
      "inputs": [
        {
          "internalType": "uint16",
          "name": "_version",
          "type": "uint16"
        },
        {
          "internalType": "uint16",
          "name": "_chainId",
          "type": "uint16"
        },
        {
          "internalType": "address",
          "name": "",
          "type": "address"
        },
        {
          "internalType": "uint256",
          "name": "_configType",
          "type": "uint256"
        }
      ],
      "name": "getConfig",
      "outputs": [
        {
          "internalType": "bytes",
          "name": "",
          "type": "bytes"
        }
      ],
      "stateMutability": "view",
      "type": "function"
    },
    {
      "inputs": [
        {
          "internalType": "uint16",
          "name": "_remoteChainId",
          "type": "uint16"
        }
      ],
      "name": "getTrustedRemoteAddress",
      "outputs": [
        {
          "internalType": "bytes",
          "name": "",
          "type": "bytes"
        }
      ],
      "stateMutability": "view",
      "type": "function"
    },
    {
      "inputs": [
        {
          "internalType": "uint16",
          "name": "_srcChainId",
          "type": "uint16"
        },
        {
          "internalType": "bytes",
          "name": "_srcAddress",
          "type": "bytes"
        }
      ],
      "name": "isTrustedRemote",
      "outputs": [
        {
          "internalType": "bool",
          "name": "",
          "type": "bool"
        }
      ],
      "stateMutability": "view",
      "type": "function"
    },
    {
      "inputs": [],
      "name": "lzEndpoint",
      "outputs": [
        {
          "internalType": "contract ILayerZeroEndpoint",
          "name": "",
          "type": "address"
        }
      ],
      "stateMutability": "view",
      "type": "function"
    },
    {
      "inputs": [
        {
          "internalType": "uint16",
          "name": "_srcChainId",
          "type": "uint16"
        },
        {
          "internalType": "bytes",
          "name": "_srcAddress",
          "type": "bytes"
        },
        {
          "internalType": "uint64",
          "name": "_nonce",
          "type": "uint64"
        },
        {
          "internalType": "bytes",
          "name": "_payload",
          "type": "bytes"
        }
      ],
      "name": "lzReceive",
      "outputs": [],
      "stateMutability": "nonpayable",
      "type": "function"
    },
    {
      "inputs": [
        {
          "internalType": "uint16",
          "name": "",
          "type": "uint16"
        },
        {
          "internalType": "uint16",
          "name": "",
          "type": "uint16"
        }
      ],
      "name": "minDstGasLookup",
      "outputs": [
        {
          "internalType": "uint256",
          "name": "",
          "type": "uint256"
        }
      ],
      "stateMutability": "view",
      "type": "function"
    },
    {
      "inputs": [
        {
          "internalType": "uint16",
          "name": "_srcChainId",
          "type": "uint16"
        },
        {
          "internalType": "bytes",
          "name": "_srcAddress",
          "type": "bytes"
        },
        {
          "internalType": "uint64",
          "name": "_nonce",
          "type": "uint64"
        },
        {
          "internalType": "bytes",
          "name": "_payload",
          "type": "bytes"
        }
      ],
      "name": "nonblockingLzReceive",
      "outputs": [],
      "stateMutability": "nonpayable",
      "type": "function"
    },
    {
      "inputs": [],
      "name": "owner",
      "outputs": [
        {
          "internalType": "address",
          "name": "",
          "type": "address"
        }
      ],
      "stateMutability": "view",
      "type": "function"
    },
    {
      "inputs": [
        {
          "internalType": "uint16",
          "name": "",
          "type": "uint16"
        }
      ],
      "name": "payloadSizeLimitLookup",
      "outputs": [
        {
          "internalType": "uint256",
          "name": "",
          "type": "uint256"
        }
      ],
      "stateMutability": "view",
      "type": "function"
    },
    {
      "inputs": [],
      "name": "precrime",
      "outputs": [
        {
          "internalType": "address",
          "name": "",
          "type": "address"
        }
      ],
      "stateMutability": "view",
      "type": "function"
    },
    {
      "inputs": [],
      "name": "renounceOwnership",
      "outputs": [],
      "stateMutability": "nonpayable",
      "type": "function"
    },
    {
      "inputs": [
        {
          "internalType": "uint16",
          "name": "_srcChainId",
          "type": "uint16"
        },
        {
          "internalType": "bytes",
          "name": "_srcAddress",
          "type": "bytes"
        },
        {
          "internalType": "uint64",
          "name": "_nonce",
          "type": "uint64"
        },
        {
          "internalType": "bytes",
          "name": "_payload",
          "type": "bytes"
        }
      ],
      "name": "retryMessage",
      "outputs": [],
      "stateMutability": "payable",
      "type": "function"
    },
    {
      "inputs": [
        {
          "internalType": "address",
          "name": "_from",
          "type": "address"
        },
        {
          "internalType": "uint16",
          "name": "_dstChainId",
          "type": "uint16"
        },
        {
          "internalType": "bytes",
          "name": "_toAddress",
          "type": "bytes"
        },
        {
          "internalType": "uint256",
          "name": "_amount",
          "type": "uint256"
        },
        {
          "internalType": "address payable",
          "name": "_refundAddress",
          "type": "address"
        },
        {
          "internalType": "address",
          "name": "_zroPaymentAddress",
          "type": "address"
        },
        {
          "internalType": "bytes",
          "name": "_adapterParams",
          "type": "bytes"
        }
      ],
      "name": "sendFrom",
      "outputs": [],
      "stateMutability": "payable",
      "type": "function"
    },
    {
      "inputs": [
        {
          "internalType": "uint16",
          "name": "_version",
          "type": "uint16"
        },
        {
          "internalType": "uint16",
          "name": "_chainId",
          "type": "uint16"
        },
        {
          "internalType": "uint256",
          "name": "_configType",
          "type": "uint256"
        },
        {
          "internalType": "bytes",
          "name": "_config",
          "type": "bytes"
        }
      ],
      "name": "setConfig",
      "outputs": [],
      "stateMutability": "nonpayable",
      "type": "function"
    },
    {
      "inputs": [
        {
          "internalType": "uint16",
          "name": "_dstChainId",
          "type": "uint16"
        },
        {
          "internalType": "uint16",
          "name": "_packetType",
          "type": "uint16"
        },
        {
          "internalType": "uint256",
          "name": "_minGas",
          "type": "uint256"
        }
      ],
      "name": "setMinDstGas",
      "outputs": [],
      "stateMutability": "nonpayable",
      "type": "function"
    },
    {
      "inputs": [
        {
          "internalType": "uint16",
          "name": "_dstChainId",
          "type": "uint16"
        },
        {
          "internalType": "uint256",
          "name": "_size",
          "type": "uint256"
        }
      ],
      "name": "setPayloadSizeLimit",
      "outputs": [],
      "stateMutability": "nonpayable",
      "type": "function"
    },
    {
      "inputs": [
        {
          "internalType": "address",
          "name": "_precrime",
          "type": "address"
        }
      ],
      "name": "setPrecrime",
      "outputs": [],
      "stateMutability": "nonpayable",
      "type": "function"
    },
    {
      "inputs": [
        {
          "internalType": "uint16",
          "name": "_version",
          "type": "uint16"
        }
      ],
      "name": "setReceiveVersion",
      "outputs": [],
      "stateMutability": "nonpayable",
      "type": "function"
    },
    {
      "inputs": [
        {
          "internalType": "uint16",
          "name": "_version",
          "type": "uint16"
        }
      ],
      "name": "setSendVersion",
      "outputs": [],
      "stateMutability": "nonpayable",
      "type": "function"
    },
    {
      "inputs": [
        {
          "internalType": "uint16",
          "name": "_remoteChainId",
          "type": "uint16"
        },
        {
          "internalType": "bytes",
          "name": "_path",
          "type": "bytes"
        }
      ],
      "name": "setTrustedRemote",
      "outputs": [],
      "stateMutability": "nonpayable",
      "type": "function"
    },
    {
      "inputs": [
        {
          "internalType": "uint16",
          "name": "_remoteChainId",
          "type": "uint16"
        },
        {
          "internalType": "bytes",
          "name": "_remoteAddress",
          "type": "bytes"
        }
      ],
      "name": "setTrustedRemoteAddress",
      "outputs": [],
      "stateMutability": "nonpayable",
      "type": "function"
    },
    {
      "inputs": [
        {
          "internalType": "bool",
          "name": "_useCustomAdapterParams",
          "type": "bool"
        }
      ],
      "name": "setUseCustomAdapterParams",
      "outputs": [],
      "stateMutability": "nonpayable",
      "type": "function"
    },
    {
      "inputs": [
        {
          "internalType": "bytes4",
          "name": "interfaceId",
          "type": "bytes4"
        }
      ],
      "name": "supportsInterface",
      "outputs": [
        {
          "internalType": "bool",
          "name": "",
          "type": "bool"
        }
      ],
      "stateMutability": "view",
      "type": "function"
    },
    {
      "inputs": [],
      "name": "token",
      "outputs": [
        {
          "internalType": "address",
          "name": "",
          "type": "address"
        }
      ],
      "stateMutability": "view",
      "type": "function"
    },
    {
      "inputs": [
        {
          "internalType": "address",
          "name": "newOwner",
          "type": "address"
        }
      ],
      "name": "transferOwnership",
      "outputs": [],
      "stateMutability": "nonpayable",
      "type": "function"
    },
    {
      "inputs": [
        {
          "internalType": "uint16",
          "name": "",
          "type": "uint16"
        }
      ],
      "name": "trustedRemoteLookup",
      "outputs": [
        {
          "internalType": "bytes",
          "name": "",
          "type": "bytes"
        }
      ],
      "stateMutability": "view",
      "type": "function"
    },
    {
      "inputs": [],
      "name": "useCustomAdapterParams",
      "outputs": [
        {
          "internalType": "bool",
          "name": "",
          "type": "bool"
        }
      ],
      "stateMutability": "view",
      "type": "function"
    }
  ],
  "transactionHash": "0xc453682bc36e964b2ec40acc16359eadaed957a1ff877343a9883a289e8fe48c",
  "args": [
    "0x3c2269811836af69497E5F486A85D7316753cf62",
    "0x555296de6A86E72752e5C5DC091FE49713Aa145C"
  ],
  "numDeployments": 1,
  "solcInputHash": "5704ce7638a02d84adb79b27046853d3",
  "bytecode": "0x60c06040523480156200001157600080fd5b50604051620032da380380620032da8339810160408190526200003491620000ce565b818080620000423362000061565b6001600160a01b039081166080529290921660a0525062000106915050565b600080546001600160a01b038381166001600160a01b0319831681178455604051919092169283917f8be0079c531659141344cd1fd0a4f28419497f9722a3daafe3b4186f6b6457e09190a35050565b80516001600160a01b0381168114620000c957600080fd5b919050565b60008060408385031215620000e257600080fd5b620000ed83620000b1565b9150620000fd60208401620000b1565b90509250929050565b60805160a05161313e6200019c600039600081816106aa01528181610e8201528181610ef701528181611bbf01528181611c4101528181611c8001528181612173015281816121ed0152612235015260008181610556015281816106d101528181610957015281816109ff01528181610a7901528181610bf4015281816111a3015281816115db0152611e31015261313e6000f3fe6080604052600436106101f85760003560e01c80638da5cb5b1161010d578063cbed8b9c116100a0578063eb8d72b71161006f578063eb8d72b714610621578063ed629c5c14610641578063f2fde38b1461065b578063f5ecbdbc1461067b578063fc0c546a1461069b57600080fd5b8063cbed8b9c146105ae578063d1deba1f146105ce578063df2a5b3b146105e1578063eab45d9c1461060157600080fd5b8063a6c3d165116100dc578063a6c3d16514610524578063b353aaa714610544578063baf3292d14610578578063c44618341461059857600080fd5b80638da5cb5b1461049d5780639358928b146104cf578063950c8a74146104e45780639f38369a1461050457600080fd5b806342d65a8d116101905780635b8c41e61161015f5780635b8c41e6146103b457806366ad5c8a14610403578063715018a6146104235780637533d788146104385780638cfd8f5c1461046557600080fd5b806342d65a8d1461034457806344770515146103645780634c42899a1461037957806351905636146103a157600080fd5b806310ddb137116101cc57806310ddb137146102945780632a205e3d146102b45780633d8b38f6146102e95780633f1f4fa41461030957600080fd5b80621d3567146101fd57806301ffc9a71461021f57806307e0db17146102545780630df3748314610274575b600080fd5b34801561020957600080fd5b5061021d6102183660046126b7565b6106ce565b005b34801561022b57600080fd5b5061023f61023a36600461274c565b6108ff565b60405190151581526020015b60405180910390f35b34801561026057600080fd5b5061021d61026f366004612776565b610936565b34801561028057600080fd5b5061021d61028f366004612793565b6109bf565b3480156102a057600080fd5b5061021d6102af366004612776565b6109de565b3480156102c057600080fd5b506102d46102cf3660046127cd565b610a36565b6040805192835260208301919091520161024b565b3480156102f557600080fd5b5061023f61030436600461286d565b610b09565b34801561031557600080fd5b50610336610324366004612776565b60036020526000908152604090205481565b60405190815260200161024b565b34801561035057600080fd5b5061021d61035f36600461286d565b610bd5565b34801561037057600080fd5b50610336600081565b34801561038557600080fd5b5061038e600081565b60405161ffff909116815260200161024b565b61021d6103af3660046128d6565b610c5b565b3480156103c057600080fd5b506103366103cf366004612a0c565b6005602090815260009384526040808520845180860184018051928152908401958401959095209452929052825290205481565b34801561040f57600080fd5b5061021d61041e3660046126b7565b610ce0565b34801561042f57600080fd5b5061021d610dbc565b34801561044457600080fd5b50610458610453366004612776565b610dd0565b60405161024b9190612b06565b34801561047157600080fd5b50610336610480366004612b19565b600260209081526000928352604080842090915290825290205481565b3480156104a957600080fd5b506000546001600160a01b03165b6040516001600160a01b03909116815260200161024b565b3480156104db57600080fd5b50610336610e6a565b3480156104f057600080fd5b506004546104b7906001600160a01b031681565b34801561051057600080fd5b5061045861051f366004612776565b610f7d565b34801561053057600080fd5b5061021d61053f36600461286d565b611094565b34801561055057600080fd5b506104b77f000000000000000000000000000000000000000000000000000000000000000081565b34801561058457600080fd5b5061021d610593366004612b52565b611127565b3480156105a457600080fd5b5061033661271081565b3480156105ba57600080fd5b5061021d6105c9366004612b6f565b611184565b61021d6105dc3660046126b7565b61120e565b3480156105ed57600080fd5b5061021d6105fc366004612be1565b611424565b34801561060d57600080fd5b5061021d61061c366004612c22565b61148e565b34801561062d57600080fd5b5061021d61063c36600461286d565b6114d7565b34801561064d57600080fd5b5060065461023f9060ff1681565b34801561066757600080fd5b5061021d610676366004612b52565b611531565b34801561068757600080fd5b50610458610696366004612c3f565b6115aa565b3480156106a757600080fd5b507f00000000000000000000000000000000000000000000000000000000000000006104b7565b337f00000000000000000000000000000000000000000000000000000000000000006001600160a01b03161461074b5760405162461bcd60e51b815260206004820152601e60248201527f4c7a4170703a20696e76616c696420656e64706f696e742063616c6c6572000060448201526064015b60405180910390fd5b61ffff86166000908152600160205260408120805461076990612c90565b80601f016020809104026020016040519081016040528092919081815260200182805461079590612c90565b80156107e25780601f106107b7576101008083540402835291602001916107e2565b820191906000526020600020905b8154815290600101906020018083116107c557829003601f168201915b505050505090508051868690501480156107fd575060008151115b801561082557508051602082012060405161081b9088908890612ccb565b6040518091039020145b6108805760405162461bcd60e51b815260206004820152602660248201527f4c7a4170703a20696e76616c696420736f757263652073656e64696e6720636f6044820152651b9d1c9858dd60d21b6064820152608401610742565b6108f68787878080601f01602080910402602001604051908101604052809392919081815260200183838082843760009201919091525050604080516020601f8a018190048102820181019092528881528a93509150889088908190840183828082843760009201919091525061165d92505050565b50505050505050565b60006001600160e01b03198216630a72677560e11b148061093057506301ffc9a760e01b6001600160e01b03198316145b92915050565b61093e6116d6565b6040516307e0db1760e01b815261ffff821660048201527f00000000000000000000000000000000000000000000000000000000000000006001600160a01b0316906307e0db17906024015b600060405180830381600087803b1580156109a457600080fd5b505af11580156109b8573d6000803e3d6000fd5b5050505050565b6109c76116d6565b61ffff909116600090815260036020526040902055565b6109e66116d6565b6040516310ddb13760e01b815261ffff821660048201527f00000000000000000000000000000000000000000000000000000000000000006001600160a01b0316906310ddb1379060240161098a565b600080600080898989604051602001610a529493929190612d04565b60408051601f198184030181529082905263040a7bb160e41b825291506001600160a01b037f000000000000000000000000000000000000000000000000000000000000000016906340a7bb1090610ab8908d90309086908c908c908c90600401612d33565b6040805180830381865afa158015610ad4573d6000803e3d6000fd5b505050506040513d601f19601f82011682018060405250810190610af89190612d89565b925092505097509795505050505050565b61ffff831660009081526001602052604081208054829190610b2a90612c90565b80601f0160208091040260200160405190810160405280929190818152602001828054610b5690612c90565b8015610ba35780601f10610b7857610100808354040283529160200191610ba3565b820191906000526020600020905b815481529060010190602001808311610b8657829003601f168201915b505050505090508383604051610bba929190612ccb565b60405180910390208180519060200120149150509392505050565b610bdd6116d6565b6040516342d65a8d60e01b81526001600160a01b037f000000000000000000000000000000000000000000000000000000000000000016906342d65a8d90610c2d90869086908690600401612dad565b600060405180830381600087803b158015610c4757600080fd5b505af11580156108f6573d6000803e3d6000fd5b610cd5898989898080601f01602080910402602001604051908101604052809392919081815260200183838082843760009201919091525050604080516020601f8a018190048102820181019092528881528c93508b92508a918a908a908190840183828082843760009201919091525061173092505050565b505050505050505050565b333014610d3e5760405162461bcd60e51b815260206004820152602660248201527f4e6f6e626c6f636b696e674c7a4170703a2063616c6c6572206d7573742062656044820152650204c7a4170760d41b6064820152608401610742565b610db48686868080601f01602080910402602001604051908101604052809392919081815260200183838082843760009201919091525050604080516020601f8901819004810282018101909252878152899350915087908790819084018382808284376000920191909152506117d792505050565b505050505050565b610dc46116d6565b610dce600061183e565b565b60016020526000908152604090208054610de990612c90565b80601f0160208091040260200160405190810160405280929190818152602001828054610e1590612c90565b8015610e625780601f10610e3757610100808354040283529160200191610e62565b820191906000526020600020905b815481529060010190602001808311610e4557829003601f168201915b505050505081565b6040516370a0823160e01b81523060048201526000907f00000000000000000000000000000000000000000000000000000000000000006001600160a01b0316906370a0823190602401602060405180830381865afa158015610ed1573d6000803e3d6000fd5b505050506040513d601f19601f82011682018060405250810190610ef59190612dcb565b7f00000000000000000000000000000000000000000000000000000000000000006001600160a01b03166318160ddd6040518163ffffffff1660e01b8152600401602060405180830381865afa158015610f53573d6000803e3d6000fd5b505050506040513d601f19601f82011682018060405250810190610f779190612dcb565b03905090565b61ffff8116600090815260016020526040812080546060929190610fa090612c90565b80601f0160208091040260200160405190810160405280929190818152602001828054610fcc90612c90565b80156110195780601f10610fee57610100808354040283529160200191611019565b820191906000526020600020905b815481529060010190602001808311610ffc57829003601f168201915b505050505090508051600014156110725760405162461bcd60e51b815260206004820152601d60248201527f4c7a4170703a206e6f20747275737465642070617468207265636f72640000006044820152606401610742565b61108d6000601483516110859190612dfa565b83919061188e565b9392505050565b61109c6116d6565b8181306040516020016110b193929190612e11565b60408051601f1981840301815291815261ffff851660009081526001602090815291902082516110e693919290910190612536565b507f8c0400cfe2d1199b1a725c78960bcc2a344d869b80590d0f2bd005db15a572ce83838360405161111a93929190612dad565b60405180910390a1505050565b61112f6116d6565b600480546001600160a01b0319166001600160a01b0383169081179091556040519081527f5db758e995a17ec1ad84bdef7e8c3293a0bd6179bcce400dff5d4c3d87db726b906020015b60405180910390a150565b61118c6116d6565b6040516332fb62e760e21b81526001600160a01b037f0000000000000000000000000000000000000000000000000000000000000000169063cbed8b9c906111e09088908890889088908890600401612e37565b600060405180830381600087803b1580156111fa57600080fd5b505af1158015610cd5573d6000803e3d6000fd5b61ffff861660009081526005602052604080822090516112319088908890612ccb565b90815260408051602092819003830190206001600160401b038716600090815292529020549050806112b15760405162461bcd60e51b815260206004820152602360248201527f4e6f6e626c6f636b696e674c7a4170703a206e6f2073746f726564206d65737360448201526261676560e81b6064820152608401610742565b8083836040516112c2929190612ccb565b6040518091039020146113215760405162461bcd60e51b815260206004820152602160248201527f4e6f6e626c6f636b696e674c7a4170703a20696e76616c6964207061796c6f616044820152601960fa1b6064820152608401610742565b61ffff871660009081526005602052604080822090516113449089908990612ccb565b90815260408051602092819003830181206001600160401b038916600090815290845282902093909355601f880182900482028301820190528682526113dc918991899089908190840183828082843760009201919091525050604080516020601f8a018190048102820181019092528881528a9350915088908890819084018382808284376000920191909152506117d792505050565b7fc264d91f3adc5588250e1551f547752ca0cfa8f6b530d243b9f9f4cab10ea8e58787878785604051611413959493929190612e65565b60405180910390a150505050505050565b61142c6116d6565b61ffff83811660008181526002602090815260408083209487168084529482529182902085905581519283528201929092529081018290527f9d5c7c0b934da8fefa9c7760c98383778a12dfbfc0c3b3106518f43fb9508ac09060600161111a565b6114966116d6565b6006805460ff19168215159081179091556040519081527f1584ad594a70cbe1e6515592e1272a987d922b097ead875069cebe8b40c004a490602001611179565b6114df6116d6565b61ffff831660009081526001602052604090206114fd9083836125ba565b507ffa41487ad5d6728f0b19276fa1eddc16558578f5109fc39d2dc33c3230470dab83838360405161111a93929190612dad565b6115396116d6565b6001600160a01b03811661159e5760405162461bcd60e51b815260206004820152602660248201527f4f776e61626c653a206e6577206f776e657220697320746865207a65726f206160448201526564647265737360d01b6064820152608401610742565b6115a78161183e565b50565b604051633d7b2f6f60e21b815261ffff808616600483015284166024820152306044820152606481018290526060907f00000000000000000000000000000000000000000000000000000000000000006001600160a01b03169063f5ecbdbc90608401600060405180830381865afa15801561162a573d6000803e3d6000fd5b505050506040513d6000823e601f3d908101601f191682016040526116529190810190612ee5565b90505b949350505050565b6000806116c05a60966366ad5c8a60e01b898989896040516024016116859493929190612f19565b60408051601f198184030181529190526020810180516001600160e01b03166001600160e01b0319909316929092179091523092919061199b565b9150915081610db457610db48686868685611a25565b6000546001600160a01b03163314610dce5760405162461bcd60e51b815260206004820181905260248201527f4f776e61626c653a2063616c6c6572206973206e6f7420746865206f776e65726044820152606401610742565b61173e866000836000611ac2565b600061174c88888888611b42565b9050600080878360405160200161176593929190612f57565b6040516020818303038152906040529050611784888287878734611d07565b886001600160a01b03168861ffff167f39a4c66499bcf4b56d79f0dde8ed7a9d4925a0df55825206b2b8531e202be0d089856040516117c4929190612f84565b60405180910390a3505050505050505050565b602081015161ffff81166117f6576117f185858585611ead565b6109b8565b60405162461bcd60e51b815260206004820152601c60248201527f4f4654436f72653a20756e6b6e6f776e207061636b65742074797065000000006044820152606401610742565b600080546001600160a01b038381166001600160a01b0319831681178455604051919092169283917f8be0079c531659141344cd1fd0a4f28419497f9722a3daafe3b4186f6b6457e09190a35050565b60608161189c81601f612fa6565b10156118db5760405162461bcd60e51b815260206004820152600e60248201526d736c6963655f6f766572666c6f7760901b6044820152606401610742565b6118e58284612fa6565b845110156119295760405162461bcd60e51b8152602060048201526011602482015270736c6963655f6f75744f66426f756e647360781b6044820152606401610742565b6060821580156119485760405191506000825260208201604052611992565b6040519150601f8416801560200281840101858101878315602002848b0101015b81831015611981578051835260209283019201611969565b5050858452601f01601f1916604052505b50949350505050565b6000606060008060008661ffff166001600160401b038111156119c0576119c061299f565b6040519080825280601f01601f1916602001820160405280156119ea576020820181803683370190505b50905060008087516020890160008d8df191503d925086831115611a0c578692505b828152826000602083013e909890975095505050505050565b8180519060200120600560008761ffff1661ffff16815260200190815260200160002085604051611a569190612fbe565b9081526040805191829003602090810183206001600160401b0388166000908152915220919091557fe183f33de2837795525b4792ca4cd60535bd77c53b7e7030060bfcf5734d6b0c90611ab39087908790879087908790612fda565b60405180910390a15050505050565b60065460ff1615611ade57611ad984848484611f37565b611b3c565b815115611b3c5760405162461bcd60e51b815260206004820152602660248201527f4f4654436f72653a205f61646170746572506172616d73206d7573742062652060448201526532b6b83a3c9760d11b6064820152608401610742565b50505050565b60006001600160a01b0385163314611ba75760405162461bcd60e51b815260206004820152602260248201527f50726f78794f46543a206f776e6572206973206e6f742073656e642063616c6c60448201526132b960f11b6064820152608401610742565b6040516370a0823160e01b81523060048201526000907f00000000000000000000000000000000000000000000000000000000000000006001600160a01b0316906370a0823190602401602060405180830381865afa158015611c0e573d6000803e3d6000fd5b505050506040513d601f19601f82011682018060405250810190611c329190612dcb565b9050611c696001600160a01b037f00000000000000000000000000000000000000000000000000000000000000001687308661200c565b6040516370a0823160e01b815230600482015281907f00000000000000000000000000000000000000000000000000000000000000006001600160a01b0316906370a0823190602401602060405180830381865afa158015611ccf573d6000803e3d6000fd5b505050506040513d601f19601f82011682018060405250810190611cf39190612dcb565b611cfd9190612dfa565b9695505050505050565b61ffff861660009081526001602052604081208054611d2590612c90565b80601f0160208091040260200160405190810160405280929190818152602001828054611d5190612c90565b8015611d9e5780601f10611d7357610100808354040283529160200191611d9e565b820191906000526020600020905b815481529060010190602001808311611d8157829003601f168201915b50505050509050805160001415611e105760405162461bcd60e51b815260206004820152603060248201527f4c7a4170703a2064657374696e6174696f6e20636861696e206973206e6f742060448201526f61207472757374656420736f7572636560801b6064820152608401610742565b611e1b878751612077565b60405162c5803160e81b81526001600160a01b037f0000000000000000000000000000000000000000000000000000000000000000169063c5803100908490611e72908b9086908c908c908c908c90600401613038565b6000604051808303818588803b158015611e8b57600080fd5b505af1158015611e9f573d6000803e3d6000fd5b505050505050505050505050565b60008082806020019051810190611ec49190613092565b909350915060009050611ed783826120ea565b9050611ee487828461214f565b9150806001600160a01b03168761ffff167fbf551ec93859b170f9b2141bd9298bf3f64322c6f7beb2543a0cb669834118bf84604051611f2691815260200190565b60405180910390a350505050505050565b6000611f42836122b5565b61ffff80871660009081526002602090815260408083209389168352929052205490915080611fb35760405162461bcd60e51b815260206004820152601a60248201527f4c7a4170703a206d696e4761734c696d6974206e6f74207365740000000000006044820152606401610742565b611fbd8382612fa6565b821015610db45760405162461bcd60e51b815260206004820152601b60248201527f4c7a4170703a20676173206c696d697420697320746f6f206c6f7700000000006044820152606401610742565b6040516001600160a01b0380851660248301528316604482015260648101829052611b3c9085906323b872dd60e01b906084015b60408051601f198184030181529190526020810180516001600160e01b03166001600160e01b031990931692909217909152612311565b61ffff82166000908152600360205260409020548061209557506127105b808211156120e55760405162461bcd60e51b815260206004820181905260248201527f4c7a4170703a207061796c6f61642073697a6520697320746f6f206c617267656044820152606401610742565b505050565b60006120f7826014612fa6565b8351101561213f5760405162461bcd60e51b8152602060048201526015602482015274746f416464726573735f6f75744f66426f756e647360581b6044820152606401610742565b500160200151600160601b900490565b6040516370a0823160e01b81526001600160a01b03838116600483015260009182917f000000000000000000000000000000000000000000000000000000000000000016906370a0823190602401602060405180830381865afa1580156121ba573d6000803e3d6000fd5b505050506040513d601f19601f820116820180604052508101906121de9190612dcb565b90506122146001600160a01b037f00000000000000000000000000000000000000000000000000000000000000001685856123e6565b6040516370a0823160e01b81526001600160a01b03858116600483015282917f0000000000000000000000000000000000000000000000000000000000000000909116906370a0823190602401602060405180830381865afa15801561227e573d6000803e3d6000fd5b505050506040513d601f19601f820116820180604052508101906122a29190612dcb565b6122ac9190612dfa565b95945050505050565b60006022825110156123095760405162461bcd60e51b815260206004820152601c60248201527f4c7a4170703a20696e76616c69642061646170746572506172616d73000000006044820152606401610742565b506022015190565b6000612366826040518060400160405280602081526020017f5361666545524332303a206c6f772d6c6576656c2063616c6c206661696c6564815250856001600160a01b03166124169092919063ffffffff16565b905080516000148061238757508080602001905181019061238791906130eb565b6120e55760405162461bcd60e51b815260206004820152602a60248201527f5361666545524332303a204552433230206f7065726174696f6e20646964206e6044820152691bdd081cdd58d8d9595960b21b6064820152608401610742565b6040516001600160a01b0383166024820152604481018290526120e590849063a9059cbb60e01b90606401612040565b6060611655848460008585600080866001600160a01b0316858760405161243d9190612fbe565b60006040518083038185875af1925050503d806000811461247a576040519150601f19603f3d011682016040523d82523d6000602084013e61247f565b606091505b50915091506124908783838761249b565b979650505050505050565b60608315612507578251612500576001600160a01b0385163b6125005760405162461bcd60e51b815260206004820152601d60248201527f416464726573733a2063616c6c20746f206e6f6e2d636f6e74726163740000006044820152606401610742565b5081611655565b611655838381511561251c5781518083602001fd5b8060405162461bcd60e51b81526004016107429190612b06565b82805461254290612c90565b90600052602060002090601f01602090048101928261256457600085556125aa565b82601f1061257d57805160ff19168380011785556125aa565b828001600101855582156125aa579182015b828111156125aa57825182559160200191906001019061258f565b506125b692915061262e565b5090565b8280546125c690612c90565b90600052602060002090601f0160209004810192826125e857600085556125aa565b82601f106126015782800160ff198235161785556125aa565b828001600101855582156125aa579182015b828111156125aa578235825591602001919060010190612613565b5b808211156125b6576000815560010161262f565b61ffff811681146115a757600080fd5b60008083601f84011261266557600080fd5b5081356001600160401b0381111561267c57600080fd5b60208301915083602082850101111561269457600080fd5b9250929050565b80356001600160401b03811681146126b257600080fd5b919050565b600080600080600080608087890312156126d057600080fd5b86356126db81612643565b955060208701356001600160401b03808211156126f757600080fd5b6127038a838b01612653565b909750955085915061271760408a0161269b565b9450606089013591508082111561272d57600080fd5b5061273a89828a01612653565b979a9699509497509295939492505050565b60006020828403121561275e57600080fd5b81356001600160e01b03198116811461108d57600080fd5b60006020828403121561278857600080fd5b813561108d81612643565b600080604083850312156127a657600080fd5b82356127b181612643565b946020939093013593505050565b80151581146115a757600080fd5b600080600080600080600060a0888a0312156127e857600080fd5b87356127f381612643565b965060208801356001600160401b038082111561280f57600080fd5b61281b8b838c01612653565b909850965060408a0135955060608a01359150612837826127bf565b9093506080890135908082111561284d57600080fd5b5061285a8a828b01612653565b989b979a50959850939692959293505050565b60008060006040848603121561288257600080fd5b833561288d81612643565b925060208401356001600160401b038111156128a857600080fd5b6128b486828701612653565b9497909650939450505050565b6001600160a01b03811681146115a757600080fd5b600080600080600080600080600060e08a8c0312156128f457600080fd5b89356128ff816128c1565b985060208a013561290f81612643565b975060408a01356001600160401b038082111561292b57600080fd5b6129378d838e01612653565b909950975060608c0135965060808c01359150612953826128c1565b90945060a08b013590612965826128c1565b90935060c08b0135908082111561297b57600080fd5b506129888c828d01612653565b915080935050809150509295985092959850929598565b634e487b7160e01b600052604160045260246000fd5b604051601f8201601f191681016001600160401b03811182821017156129dd576129dd61299f565b604052919050565b60006001600160401b038211156129fe576129fe61299f565b50601f01601f191660200190565b600080600060608486031215612a2157600080fd5b8335612a2c81612643565b925060208401356001600160401b03811115612a4757600080fd5b8401601f81018613612a5857600080fd5b8035612a6b612a66826129e5565b6129b5565b818152876020838501011115612a8057600080fd5b81602084016020830137600060208383010152809450505050612aa56040850161269b565b90509250925092565b60005b83811015612ac9578181015183820152602001612ab1565b83811115611b3c5750506000910152565b60008151808452612af2816020860160208601612aae565b601f01601f19169290920160200192915050565b60208152600061108d6020830184612ada565b60008060408385031215612b2c57600080fd5b8235612b3781612643565b91506020830135612b4781612643565b809150509250929050565b600060208284031215612b6457600080fd5b813561108d816128c1565b600080600080600060808688031215612b8757600080fd5b8535612b9281612643565b94506020860135612ba281612643565b93506040860135925060608601356001600160401b03811115612bc457600080fd5b612bd088828901612653565b969995985093965092949392505050565b600080600060608486031215612bf657600080fd5b8335612c0181612643565b92506020840135612c1181612643565b929592945050506040919091013590565b600060208284031215612c3457600080fd5b813561108d816127bf565b60008060008060808587031215612c5557600080fd5b8435612c6081612643565b93506020850135612c7081612643565b92506040850135612c80816128c1565b9396929550929360600135925050565b600181811c90821680612ca457607f821691505b60208210811415612cc557634e487b7160e01b600052602260045260246000fd5b50919050565b8183823760009101908152919050565b81835281816020850137506000828201602090810191909152601f909101601f19169091010190565b61ffff85168152606060208201526000612d22606083018587612cdb565b905082604083015295945050505050565b61ffff871681526001600160a01b038616602082015260a060408201819052600090612d6190830187612ada565b85151560608401528281036080840152612d7c818587612cdb565b9998505050505050505050565b60008060408385031215612d9c57600080fd5b505080516020909101519092909150565b61ffff84168152604060208201526000611652604083018486612cdb565b600060208284031215612ddd57600080fd5b5051919050565b634e487b7160e01b600052601160045260246000fd5b600082821015612e0c57612e0c612de4565b500390565b8284823760609190911b6bffffffffffffffffffffffff19169101908152601401919050565b600061ffff808816835280871660208401525084604083015260806060830152612490608083018486612cdb565b61ffff86168152608060208201526000612e83608083018688612cdb565b6001600160401b0394909416604083015250606001529392505050565b600082601f830112612eb157600080fd5b8151612ebf612a66826129e5565b818152846020838601011115612ed457600080fd5b611655826020830160208701612aae565b600060208284031215612ef757600080fd5b81516001600160401b03811115612f0d57600080fd5b61165584828501612ea0565b61ffff85168152608060208201526000612f366080830186612ada565b6001600160401b038516604084015282810360608401526124908185612ada565b61ffff84168152606060208201526000612f746060830185612ada565b9050826040830152949350505050565b604081526000612f976040830185612ada565b90508260208301529392505050565b60008219821115612fb957612fb9612de4565b500190565b60008251612fd0818460208701612aae565b9190910192915050565b61ffff8616815260a060208201526000612ff760a0830187612ada565b6001600160401b038616604084015282810360608401526130188186612ada565b9050828103608084015261302c8185612ada565b98975050505050505050565b61ffff8716815260c06020820152600061305560c0830188612ada565b82810360408401526130678188612ada565b6001600160a01b0387811660608601528616608085015283810360a08501529050612d7c8185612ada565b6000806000606084860312156130a757600080fd5b83516130b281612643565b60208501519093506001600160401b038111156130ce57600080fd5b6130da86828701612ea0565b925050604084015190509250925092565b6000602082840312156130fd57600080fd5b815161108d816127bf56fea2646970667358221220530e8bed640f49b3d7ba318dfddf471064570683e362889108a1d50b366444af64736f6c634300080c0033",
  "devdoc": {
    "kind": "dev",
    "methods": {
      "circulatingSupply()": {
        "details": "returns the circulating amount of tokens on current chain"
      },
      "estimateSendFee(uint16,bytes,uint256,bool,bytes)": {
        "details": "estimate send token `_tokenId` to (`_dstChainId`, `_toAddress`) _dstChainId - L0 defined chain id to send tokens too _toAddress - dynamic bytes array which contains the address to whom you are sending tokens to on the dstChain _amount - amount of the tokens to transfer _useZro - indicates to use zro to pay L0 fees _adapterParam - flexible bytes array to indicate messaging adapter services in L0"
      },
      "owner()": {
        "details": "Returns the address of the current owner."
      },
      "renounceOwnership()": {
        "details": "Leaves the contract without owner. It will not be possible to call `onlyOwner` functions. Can only be called by the current owner. NOTE: Renouncing ownership will leave the contract without an owner, thereby disabling any functionality that is only available to the owner."
      },
      "sendFrom(address,uint16,bytes,uint256,address,address,bytes)": {
        "details": "send `_amount` amount of token to (`_dstChainId`, `_toAddress`) from `_from` `_from` the owner of token `_dstChainId` the destination chain identifier `_toAddress` can be any size depending on the `dstChainId`. `_amount` the quantity of tokens in wei `_refundAddress` the address LayerZero refunds if too much message fee is sent `_zroPaymentAddress` set to address(0x0) if not paying in ZRO (LayerZero Token) `_adapterParams` is a flexible bytes array to indicate messaging adapter services"
      },
      "token()": {
        "details": "returns the address of the ERC20 token"
      },
      "transferOwnership(address)": {
        "details": "Transfers ownership of the contract to a new account (`newOwner`). Can only be called by the current owner."
      }
    },
    "version": 1
  },
  "userdoc": {
    "kind": "user",
    "methods": {},
    "version": 1
  },
  "storageLayout": {
    "storage": [
      {
        "astId": 7,
        "contract": "contracts/token/oft/v1/ProxyOFT.sol:ProxyOFT",
        "label": "_owner",
        "offset": 0,
        "slot": "0",
        "type": "t_address"
      },
      {
        "astId": 6657,
        "contract": "contracts/token/oft/v1/ProxyOFT.sol:ProxyOFT",
        "label": "trustedRemoteLookup",
        "offset": 0,
        "slot": "1",
        "type": "t_mapping(t_uint16,t_bytes_storage)"
      },
      {
        "astId": 6663,
        "contract": "contracts/token/oft/v1/ProxyOFT.sol:ProxyOFT",
        "label": "minDstGasLookup",
        "offset": 0,
        "slot": "2",
        "type": "t_mapping(t_uint16,t_mapping(t_uint16,t_uint256))"
      },
      {
        "astId": 6667,
        "contract": "contracts/token/oft/v1/ProxyOFT.sol:ProxyOFT",
        "label": "payloadSizeLimitLookup",
        "offset": 0,
        "slot": "3",
        "type": "t_mapping(t_uint16,t_uint256)"
      },
      {
        "astId": 6669,
        "contract": "contracts/token/oft/v1/ProxyOFT.sol:ProxyOFT",
        "label": "precrime",
        "offset": 0,
        "slot": "4",
        "type": "t_address"
      },
      {
        "astId": 7199,
        "contract": "contracts/token/oft/v1/ProxyOFT.sol:ProxyOFT",
        "label": "failedMessages",
        "offset": 0,
        "slot": "5",
        "type": "t_mapping(t_uint16,t_mapping(t_bytes_memory_ptr,t_mapping(t_uint64,t_bytes32)))"
      },
      {
        "astId": 9770,
        "contract": "contracts/token/oft/v1/ProxyOFT.sol:ProxyOFT",
        "label": "useCustomAdapterParams",
        "offset": 0,
        "slot": "6",
        "type": "t_bool"
      }
    ],
    "types": {
      "t_address": {
        "encoding": "inplace",
        "label": "address",
        "numberOfBytes": "20"
      },
      "t_bool": {
        "encoding": "inplace",
        "label": "bool",
        "numberOfBytes": "1"
      },
      "t_bytes32": {
        "encoding": "inplace",
        "label": "bytes32",
        "numberOfBytes": "32"
      },
      "t_bytes_memory_ptr": {
        "encoding": "bytes",
        "label": "bytes",
        "numberOfBytes": "32"
      },
      "t_bytes_storage": {
        "encoding": "bytes",
        "label": "bytes",
        "numberOfBytes": "32"
      },
      "t_mapping(t_bytes_memory_ptr,t_mapping(t_uint64,t_bytes32))": {
        "encoding": "mapping",
        "key": "t_bytes_memory_ptr",
        "label": "mapping(bytes => mapping(uint64 => bytes32))",
        "numberOfBytes": "32",
        "value": "t_mapping(t_uint64,t_bytes32)"
      },
      "t_mapping(t_uint16,t_bytes_storage)": {
        "encoding": "mapping",
        "key": "t_uint16",
        "label": "mapping(uint16 => bytes)",
        "numberOfBytes": "32",
        "value": "t_bytes_storage"
      },
      "t_mapping(t_uint16,t_mapping(t_bytes_memory_ptr,t_mapping(t_uint64,t_bytes32)))": {
        "encoding": "mapping",
        "key": "t_uint16",
        "label": "mapping(uint16 => mapping(bytes => mapping(uint64 => bytes32)))",
        "numberOfBytes": "32",
        "value": "t_mapping(t_bytes_memory_ptr,t_mapping(t_uint64,t_bytes32))"
      },
      "t_mapping(t_uint16,t_mapping(t_uint16,t_uint256))": {
        "encoding": "mapping",
        "key": "t_uint16",
        "label": "mapping(uint16 => mapping(uint16 => uint256))",
        "numberOfBytes": "32",
        "value": "t_mapping(t_uint16,t_uint256)"
      },
      "t_mapping(t_uint16,t_uint256)": {
        "encoding": "mapping",
        "key": "t_uint16",
        "label": "mapping(uint16 => uint256)",
        "numberOfBytes": "32",
        "value": "t_uint256"
      },
      "t_mapping(t_uint64,t_bytes32)": {
        "encoding": "mapping",
        "key": "t_uint64",
        "label": "mapping(uint64 => bytes32)",
        "numberOfBytes": "32",
        "value": "t_bytes32"
      },
      "t_uint16": {
        "encoding": "inplace",
        "label": "uint16",
        "numberOfBytes": "2"
      },
      "t_uint256": {
        "encoding": "inplace",
        "label": "uint256",
        "numberOfBytes": "32"
      },
      "t_uint64": {
        "encoding": "inplace",
        "label": "uint64",
        "numberOfBytes": "8"
      }
    }
  }
}